:020000021000EC
:10F0000000400020F1050200CD050200CD05020000
:10F0100000000000000000000000000000000000F0
:10F02000000000000000000000000000CD0502000C
:10F030000000000000000000CD050200CD05020028
:10F04000CD050200912F0200CD050200CD05020082
:10F05000CD05020000000000CD050200CD05020034
:10F06000CD050200CD050200B54B0200CD05020022
:10F07000CD050200CD050200CD050200CD05020040
:10F08000CD050200CD050200CD050200CD05020030
:10F0900055330200CD050200CD050200CD0502006A
:10F0A000CD050200CD0502000000000000000000B8
:10F0B0000000000000000000000000000000000050
:10F0C00010B5064C2378002B07D1054B002B02D03E
:10F0D000044800E000BF0123237010BD3C2900203C
:10F0E000000000004860020008B5084B002B03D068
:10F0F0000748084900E000BF07480368002B03D019
:10F10000064B002B00D0984708BDC0460000000009
:10F110004860020040290020486002000000000012
:10F12000054B1A68002A01D1044A1A601A6810189F
:10F130001860101C7047C04658290020B43D0020BC
:10F1400008B503480121142200F00AFE08BDC0469C
:10F1500064290020F8B51E1C364C374B171CE25CA6
:10F16000051C002A01D00022E254FD22D200A35C3B
:10F17000002B06D00023A354304A0121A154304A69
:10F18000A354304B0120E05405F02AFEFE23DB009F
:10F19000E050012E05D13A78201C291C00F0EEFD2C
:10F1A00045E0012E06DD201C291C3A1C331C00F012
:10F1B00097FE3CE0244EA25DD2B2002A18D0234B29
:10F1C000E35C002B0BD1224F381C00F0F9F8201C17
:10F1D00000F070F908217860381C00F0E1F8184B55
:10F1E0000D22E254154B0122E2540023A3550AE0FC
:10F1F000184BE15C002906D011490E2060540F49DC
:10F2000001206054E254201C00F05AFE002805D072
:10F21000201C291C002200F0FFFB0AE08A239B002F
:10F22000E15C002905D0201C00F006FB01E000286D
:10F23000EED1F8BD64290020EB070000E9070000CB
:10F24000EE070000EA070000E6070000E407000000
:10F250005C290020E7070000F8B5454C454BE25C0F
:10F26000002A07D00022E254434B201CE15CC9B2C3
:10F2700000F0C8FE201C01F005F8201C00F0E0FFA3
:10F28000201C00F089FE002812D03C4D281C05F0FF
:10F29000D9FE061C05F0A8FD394BF1B2E050201C48
:10F2A00000F094FA002803D1281C364905F02BFE03
:10F2B000201C00F065F9002812D08825324BAD00E3
:10F2C0000022201C6159E25400F0FFF9002807D009
:10F2D000201C615900F070FA6159201C00F0EEF911
:10F2E000201C00F0CBFD002841D0FE27FF00E35991
:10F2F000002B37D0254B201CE35C002B14D100F0F1
:10F300003FF9002803D0201C00F0CEFB2FE08A2319
:10F310009B00E35C002B2AD11D4BE35C002B26D025
:10F32000201C00F001FC22E000F02AF900281ED089
:10F33000184BE35C002BE6D0174EA35D002BE2D107
:10F34000164D281C00F03CF8201C00F0B3F80821F2
:10F350006860281C00F024F805F042FD0123E0510C
:10F36000A35504E0201C00F00BF90028CBD1F8BD18
:10F3700064290020E9070000EE0700006C3100203E
:10F38000F4070000305D0200EA070000EB07000010
:10F3900027020000E6070000E40700005C290020C7
:10F3A00008B5054A036813604268044B081C1A60DC
:10F3B00001F0E4F908BDC046E0200020B439002087
:10F3C00008B501F04DFA08BD08B5081C111C1A1C3F
:10F3D00001F038FA08BD0000034B01221A60034B0C
:10F3E0000421002206C37047A83900205C290020B0
:10F3F000094A00238354FF221921D20081508A2216
:10F40000D2008354054A8354FE22D2008350044A1A
:10F410008350044A83547047ED070000EF07000053
:10F42000F4070000EA07000010B50821041C10488A
:10F43000FFF7B6FF0620002105F0E8FC02200121BD
:10F4400005F0E4FC0220012105F01AFDE121094844
:10F45000490205F01FFE084A0023A354FD22D200F2
:10F46000A354064AA354064AA354064AA35410BD03
:10F470005C2900206C310020EB070000E40700004D
:10F48000E9070000EA07000008B500200A2105F09E
:10F49000BDFC01200A2105F0B9FC0220012105F084
:10F4A000B5FC0020011C05F0EBFC0120002105F05B
:10F4B000E7FC08BDFB239B021868704770B5084D38
:10F4C000084E041C281CFFF77BFFA359281C0821A9
:10F4D0006B60FFF765FFA259FF23DB00E25070BDB0
:10F4E0005C290020FC07000008B5FB2005F09AFB12
:10F4F0000123013883428041404208BD70B50C1E93
:10F50000192C01D9002017E00C4E3568FFF7ECFFED
:10F510000028F7D06B1C08D1FB208002211C05F0CD
:10F52000B5FB43425841C0B206E0301C291C05F02F
:10F53000ADFB0028E6DCEFE770BDC04604EC03003D
:10F5400070B5FB25AD020E1C2C68FFF7CDFF00281F
:10F5500001D1002010E0631C07D10848311C05F0E0
:10F5600095FB43425841C0B206E0281C211C05F01F
:10F570008DFB0028F1D0ECE770BDC04604EC030021
:10F5800010B5041C05F02CFCFE23DB00E3580F3300
:10F59000FF3383428041404210BD000008B502485D
:10F5A000024905F0B0FC08BD6C3100204D5D020041
:10F5B00038B5064C0D1C201C054905F0A4FC291C7F
:10F5C000201C0A2205F0F9FC38BDC0466C31002031
:10F5D000735D020008B50248024905F094FC08BDBD
:10F5E0006C3100208D5D020008B50248024905F02B
:10F5F0008AFC08BD6C310020495D020008B5024854
:10F60000024905F080FC08BD6C310020C15D02009C
:10F6100008B50248024905F076FC08BD6C310020AF
:10F62000CB5D020010B5041CFFF7E8FF201CFFF7BC
:10F63000D1FF201CFFF7D8FF10BD0B1C581A9042B9
:10F6400003DA002018700133F8E7704710B5002383
:10F650002231934207DA881E002404700124481ED8
:10F6600004701B19F4E710BD10B50C1C0331FFF733
:10F67000EDFF00236370A370237010BD70B504A864
:10F680000078002801D001204870101C841A9C4288
:10F690000DDA8524A4000D59074EB54209DC067821
:10F6A0004D19AE700D59013001350D51EEE70120B5
:10F6B00000E0002070BDC0460F02000008B58422A3
:10F6C00002319200FFF7B9FF08BD85239B00CB589C
:10F6D000D817C31AD80F70470B780020834205D182
:10F6E00085239B00CB58581E0343D80F7047F0B5B5
:10F6F0000B7885B05B061B0F041C0E1C171C0393B4
:10F70000002B23D1882292008558291CFFF7E4FFA3
:10F71000002809D001210091721C7B1E201C291C8D
:10F72000FFF7ACFF052045E02B88002B42D1862354
:10F730009B00E95C022001293CD10091721C7B1ED8
:10F74000201C291CFFF79AFF042033E088239B002C
:10F75000C558291CFFF7C0FF002810D00021721CDB
:10F760007B1E0091201C291CFFF788FF882189003F
:10F770006258862303999B00D15406201AE06978C9
:10F780000120002916D186229200AB5C039A032047
:10F790009B1A012B0ED1721C7B1E0091201C291C70
:10F7A000FFF76CFF88218900635886220399920035
:10F7B0009954072005B0F0BD8522002392000B70FC
:10F7C0004B708B50862292008B547047F0B5174FC8
:10F7D000031CC05D002827D1154A9C58A51CEE7F4C
:10F7E000144D1F2E0BD8A1559A5801200232D17FFB
:10F7F0000131D1775A5D002A17D1585515E05E5D69
:10F80000102E02D10122DA550FE0201C22300136E1
:10F81000985024345E55E47F01559B5801200233F3
:10F82000DA7F0132DA7700E00020F0BD2602000026
:10F830004C04000027020000054B10B50A1CC1183B
:10F84000041CFFF711FF034BE218034BE25010BDFD
:10F8500026020000290200004C04000010B54A787E
:10F86000031C0124F02A51D188780A283FD805F0DA
:10F87000DDFC063E3E2E3E1520243E3E2200244A5C
:10F880002449985C244A002801D00D2000E00C2077
:10F89000585401219954181C012106E005211D4AE4
:10F8A000181C99541C4A01219954FFF7C5FF0024E4
:10F8B0002CE00421F3E70621F1E7154A1549985C8D
:10F8C000154A002801D00720E2E70820E0E7104AA7
:10F8D0009C5CE4B2002C08D0104A09219954181CF1
:10F8E0000121FFF7A9FF022410E0012105E0084AE9
:10F8F00001219C5CE4B2002C07D1064A181C9954E3
:10F90000054A9954FFF798FF00E00C1C201C10BD1D
:10F91000EA070000EE070000E907000051040000BC
:10F92000F8B54B78041C0F1C0125F02B57D18E78AD
:10F93000022E40D0042E25D0AE4250D1294BC55CBA
:10F94000EDB2002D05D1284B311CC654274BC654AF
:10F950002EE0CB78192B0CD8FF22D2008350FB234A
:10F960009B021A68224B311CC250224B0522C25402
:10F9700015E0311CFFF760FF1B4B0B22E2541B4BC1
:10F98000E6542BE0174BC55CEDB2002D0BD0CA78C6
:10F9900080231B01C250174B0722C2540121FFF7DD
:10F9A0004BFF02251BE0104B0121C1540F4BC154EA
:10F9B000FFF742FF13E0C978FFF7A0FD0A4A0B4B9F
:10F9C0000B21002804D0F878FF21C90060500A21DB
:10F9D000A154201CE5540121FFF72EFF0025281C0F
:10F9E000F8BDC046EA070000EE070000E907000086
:10F9F000FC0700005104000008B58B1CDA7F032AC5
:10FA000002D1FFF72BFF04E00123042A02D1FFF704
:10FA100087FF031C181C08BDF7B51E4B8A26B600CD
:10FA2000C55C835D041CEB1A013B0F1C0193012D87
:10FA300013D1002B11D1184BE118FFF7DDFF01287E
:10FA40000BD0022825D115482B1C2218391C14482C
:10FA5000FFF7BAFC134BE5541BE0A35D22225A4387
:10FA60008825A318AD005919019D0F202840C0001A
:10FA700048720948902189001A185B189B7A084837
:10FA8000391CFFF7A1FCA35D01220133A355054BEF
:10FA9000E254F7BD270200002902000051040000D3
:10FAA0005C290020EB07000038B5184B0021C15439
:10FAB000174B041CC25CD2B28A4204D0C154FFF777
:10FAC000FDFC022205E0134BC15C002907D0C254A3
:10FAD0000322114BE254114B0122E25415E0104B6A
:10FAE0008A229200815CC25C1D1C91420DD20D4B9A
:10FAF000E118FFF781FF012803D1074BE054074BC2
:10FB0000E054615D201CFFF797FE38BDEA07000056
:10FB1000E6070000E7070000EE070000E907000025
:10FB2000270200002902000070B5154B041CC35CBD
:10FB30000026022B22D1134A825C3C2A1ED1124A93
:10FB40000125865CF6B2002E11D0FD22D20085542C
:10FB50000E4A0021815482180D48FFF735FC0D4BE9
:10FB6000201CE554291CFFF767FE2E1C06E00A4BFB
:10FB7000291CC554094BC554FFF75EFE301C70BDEF
:10FB80004A0200002A020000EA07000029020000E1
:10FB90005C290020EB070000EE070000E9070000E9
:10FBA0008B1C1F2010B5D877107840234006000F1B
:10FBB0005B4203430B700023D0184478C81801330C
:10FBC00044701F2BF8D110BD38B58925AD00435DB9
:10FBD0000A1C24215943074B4118041CC918FFF77C
:10FBE000DFFF635D0133DBB2182B00D900236355BF
:10FBF000012038BD5304000010B5041C05F0F0F8D6
:10FC0000014BE05010BDC046DC07000038B50021B4
:10FC1000041C1A48FFF7C4FB8A23DB00E15C184D83
:10FC2000002911D00620002105F0F0F80220012162
:10FC300005F0ECF80220012105F022F9E121281C51
:10FC4000490205F027FA09E0052005F0DFF8E12177
:10FC5000281C49020322022305F025FA05F0C0F80A
:10FC6000FC23DB00E050074B0022E254064B01224C
:10FC7000E254201CFFF7C0FF38BDC0465C290020BD
:10FC80006C310020D7070000E507000070B5041CA8
:10FC90000E1E022E02D1FFF7F7FB52E0FB239B0260
:10FCA00019681D1C013102D1111CFFF727FC2B68BC
:10FCB000244A5360FF22D200A350234B1A681D1C14
:10FCC000013203D1201C3021FFF73AFC2A6880233F
:10FCD0001B01E250852300259B0025706570E550CF
:10FCE00086239B00E554201C211CFFF7E7FC892399
:10FCF0009B00E554154BE554154862191118154839
:10FD000000230B70111814480B7011180B70134955
:10FD1000243552181370E12292009542ECD18822CA
:10FD20009200A45087229200201CA3541021FFF7B8
:10FD300083FD201C002E02D1FFF768FF01E0FFF7D2
:10FD400073FB70BD5C29002004EC03002502000059
:10FD500075040000740400005304000076040000E1
:10FD6000054B10B5C1541924002394425B415B42FA
:10FD70001A40FFF78BFF10BDED070000F8B5041C1B
:10FD80000E1C082A5AD8101C05F050FA65050D58AB
:10FD9000505813583B008A2300229B00E2540A204B
:10FDA00005F026F803E08A2300229B00E254012597
:10FDB00052E0FF27FF00201CE159FFF79FFB274B74
:10FDC000051CE2182648002D0ED0E1590127E15408
:10FDD000244B0025E754244B311CE5543B1CFFF712
:10FDE000F3FA2249675437E0FB2189020968E1519F
:10FDF000E1540123311CFFF7E7FA1C4A0123A35405
:10FE00002AE080231B01E158144B201CE154FFF72A
:10FE100097FB124B1248E218311C0123FFF7D4FA6A
:10FE2000124A0123A354124AA35414E01148124960
:10FE300005F069F80D4B0122E2540CE0074B002558
:10FE4000E218E55406480123311CFFF7BDFA074BC1
:10FE50000122E25400E00025281CF8BD51040000F6
:10FE60005C290020E6070000E4070000EB07000023
:10FE7000E70700006C310020D55D020010B5041CBE
:10FE800004F0B2FF034BE358F533FF338342804164
:10FE9000404210BDF407000008B58A239B00C15CF6
:10FEA000064BC25C0023914205D2FFF7E7FF031C1B
:10FEB000581E8341DBB2181C08BDC0462702000053
:10FEC00010B5041CFFF7E8FF031C0020834204D098
:10FED000024BE05C43425841C0B210BDEB0700004A
:10FEE00070B50D1C1178041C7F2907D9111CFFF770
:10FEF0006BFE201CFFF7E4FF051C3CE0111C1A1CE4
:10FF0000FFF7F5FB032822D81C4E1D49A21905F066
:10FF10008DF902020A0A0123081CA355291CFFF7C8
:10FF200053FA002527E00223A355081C0123291CAE
:10FF3000FFF74AFA88239B00E358852200259200A8
:10FF40001D705D709D50862292009D5413E0201C10
:10FF5000FFF7B6FF051E0DD18A230A4A9B00E35C1A
:10FF6000A15C994205D1002903D0201CFFF764FC55
:10FF700001E001E00125281C70BDC04651040000CD
:10FF80005C2900202702000008B50248FFF730FA7C
:10FF900008BDC0466429002008B5034805F036F8BE
:10FFA000C317181AC00F08BD6C31002038B5084CB3
:10FFB0000D1C201C074904F0A6FF291C0A22201C46
:10FFC00004F0FBFF291C201C05F09EF838BDC0463C
:10FFD0006C310020245E020038B5084C0D1C201C3A
:10FFE000074904F090FF291C0A22201C04F0E5FFB9
:10FFF000291C201C05F088F838BDC0466C31002053
:020000022000DC
:10000000355E020070B5041C0E2900D9C3E0081C3F
:1000100005F00CF9BD6B080E273D53191F6B6F8857
:100020008FA3B100201CFFF7E9FA5B485B4904E0AD
:10003000201CFFF7E3FA5848594904F064FF201CDC
:10004000FFF7C8FA9FE0201CFFF7E2FA5248554933
:1000500004E0201CFFF7D2FA4F48534904F053FF45
:1000600091E0201CFFF7D4FAE1218902201CFFF760
:100070009FFA201CFFF7B8FA022004F0B9FE464CA4
:10008000201C05F019F8E121201C89022AE0201C1F
:10009000FFF7BEFAE1214902201CFFF789FA201C74
:1000A000FFF7A2FA022004F0A3FE3B4C201C05F04F
:1000B00003F8E121201C490214E0201CFFF7A8FAF4
:1000C000E1210903201CFFF773FA201CFFF78CFACB
:1000D000022004F08DFE304C201C04F0EDFFE121E5
:1000E000201C090304F0D6FF55E0201CFFF79AFA04
:1000F00051E0FB25AD022A682C4EFF23DB00E250C5
:10010000301CFFF75DF92B680821301C7360FFF786
:1001100047F9201CFFF77CFA25491F4804F0F3FE3D
:10012000297810E0201CFFF769FA201CFFF736FA47
:1001300029E0201CFFF762FA1E49174804F0E3FE8D
:10014000FB239B021978201CFFF730FF201CFFF7D0
:100150004BFA194B0022E2541DE0201CFFF758FA1D
:1001600016490D4804F0CFFEFB239B021978201C92
:10017000FFF71CFF07E0201CFFF74AFA104B201C7A
:100180001978FFF729FF201CFFF72EFA03E0024839
:100190002C2104F0B9FF70BD6C310020415E0200DB
:1001A000585E0200715E02007E5E02005C29002043
:1001B0008D5E02009E5E0200EA070000A75E02005C
:1001C00004EC030038B501230B708A23DB00C35C09
:1001D0000C1C0D1C002B0ED085229200A2582B1B4C
:1001E0000C48934204DAA97804F091FE0135F3E754
:1001F00004F092FE0BE085229200A2582B1B934242
:1002000005DAA978034804F07FFF0135F3E70023FE
:10021000237038BD6C31002038B58525AD004B59B1
:100220000C1C002B0BDD4B78002B08D0FFF7CAFF0E
:10023000862200239200237063706351A35438BD5B
:1002400008B5011CFFF7E8FF08BD0000F8B50C4F2A
:10025000CE1C01230D1CF377381CA02104F054FFA1
:1002600000242B195978381C013404F04DFF1F2C41
:10027000F7D12978381C04F047FF0023F377F8BD45
:100280006C31002070B58923124D9B00415DC35C29
:10029000041C8B421CD0242671430F4B4118C918F3
:1002A000FFF7D4FF625D8A237243DB00D218A218E5
:1002B0000023911DCB77511DCB77D3700732D377B5
:1002C000625D0132D2B2182A01D8625500E063554E
:1002D00070BDC046250200005304000008B5024866
:1002E00004F03AFF08BDC0466C31002038B50A4C16
:1002F000A12301250022DB006560A560E2500223F6
:10030000D1229A40A350C1229A40A3501120034900
:1003100004F0ECFC256038BD00100140194D0200CE
:1003200008B5FFF7E3FF08BD044B054AD050054B65
:100330001A78012A01D102221A7070471C050000A8
:100340000020004068310020014B0022DA60704735
:10035000FC200040014B00221A627047FC20004044
:1003600008499022D2008858012330B5184001D0A6
:100370008B5004E08D580424254201D08C50181C69
:1003800030BDC0460020004038B5074D281C04F0A1
:1003900019FE064C201C04F015FE291C221C0448E2
:1003A00004F06AFE38BDC046883100209035002038
:1003B0006C31002070B50E4D2B78002B17D00D4CF2
:1003C0000D4804F055FE0123E3606360A023DB00C9
:1003D0000026E650022004F093FC084B0C21E25862
:1003E000A023C132FF329200DB05D1502E7070BDC8
:1003F00068310020002000406C3100200C05000016
:1004000008B5011C014804F07FFE08BD6C310020D6
:10041000F8B5041C55480678002E00D0A5E0E02071
:1004200040001718A0255248ED05BF007851E02084
:1004300040000F18BF007E514E4D4F4EAA514F4AFB
:10044000A95096221202944256D022DC96229201A2
:1004500094424BD00EDC96221201944241D0962257
:100460005201944240D09622D20094424FD19E2312
:10047000DB024CE09622D201944239D0E122D20133
:10048000944237D0E1229201944240D1EC239B0365
:100490003DE0E1229202944234D00DDC96225202D9
:1004A00094422BD0E1225202944229D0E12212023E
:1004B00094422CD1324B2AE0E122D202944223D042
:1004C00005DC304A944222D18023DB041FE0E12284
:1004D000120394421AD02C4A944218D180235B050F
:1004E00015E09D231B0312E0284B10E0284B0EE083
:1004F000284B0CE0284B0AE0284B08E0284B06E08C
:10050000284B04E0284B02E0284B00E0284B294A06
:100510008421AB50A0230422DB00EA50264B0022AA
:10052000DA601A62C1239B00EA5801260A43EA50A6
:100530000E4B022021491E7004F0D8FB204BAE6008
:100540001B782E60002B10D11E4B1B68002B0CD08B
:1005500096239B019C4208DD1B4C2078002803D089
:100560000134FFF74DFFF8E7FEE7F8BD68310020E2
:1005700001030000002000400C05000014050000ED
:1005800000F0EB0090D0030040420F0000B01300D9
:100590000050270000A04E0000F0750000509D00A4
:1005A00000903A0100E0D70100B0AF0300705F0790
:1005B000A4DFBE0E24050000FC200040DD02020086
:1005C00069310020A0390020BB5E020008B5044B51
:1005D0005A68044B1A40044B9200D358984708BD00
:1005E00000ED00E0FF0100002020002000B5FEE744
:1005F00008B50C4A0C4B9A4202D104E002CA02C36D
:100600000A498B42FAD30A4B01E0002204C3094A8B
:100610009342FAD3084B9847084B9847084B9847A2
:10062000FEE7C04648600200002000203C29002070
:100630003C290020B43D002025530200450602005D
:10064000B94E020000B5074B1B681B061B0F012BA0
:1006500006D1054A054B1A608023054A1B02136028
:1006600000BDC046E80F00F0DFFF07C004050040F2
:10067000186C004070B5C3B28901002814DA0F224B
:100680001A40083A11489208032492001218234095
:10069000FF24DB001068251C9D40A8430C409C40B3
:1006A000031C2343136010E08008094A0324C03070
:1006B00080002340FF24DB008558261C9E40B54364
:1006C0000C409C402B1C2343835070BD1CED00E06C
:1006D00000E100E023DF704724DF704728DF704728
:1006E00043DF704708B5094B1B68002B05D0012379
:1006F0008340181CFFF7F4FF06E001238340181C19
:10070000034AA123DB00D05008BDC046A039002019
:1007100000F0014038B50C4B44B21B68051C0121A8
:10072000201C002B05D0FFF7D9FF201CFFF7D2FFBC
:1007300008E0FFF79FFF1F231D400123AB401D1C56
:10074000024B1D6038BDC046A039002000E100E02A
:1007500008B5084B1B68002B03D040B2FFF7BCFF65
:1007600006E01F23184001238340181C024BD86762
:1007700008BDC046A039002004E100E02C4B07B5BD
:100780001870083843425841C0B200F035F90123CF
:1007900000284AD0274B06201B68191C133110DB98
:1007A0001A1C05200F320CDB191C04200B3108DB4E
:1007B0000320DA1D05DB0220D91C02DB581E03438F
:1007C000D80F00F0D3FB022300282ED01A4B1B6851
:1007D000002B0AD0DBB269465A1E0A703133193237
:1007E0004A708B706846032106E01449684605226A
:1007F00005F04CF86846052100F0BEFA002801D14A
:10080000052312E0012000F073FC042300280CD023
:10081000AF20800000F0F4FB00F062F90323002811
:1008200003D0074B01221A600023181C0EBDC046DE
:10083000B0390020E0200020B4390020605F0200C1
:10084000AC390020054B10B51C780023082C02D1D0
:1008500000F06AF9031C181C10BDC046B039002016
:1008600008B500F055F900F04DF90028FBD1044B14
:100870000222DA678022D200DA67024B186008BDD4
:1008800004E100E0AC39002010B58CB001912023C8
:1008900004A903AA041C039300F09CF900280AD0C1
:1008A000064B002B07D001AB0222995EE0B204AAEE
:1008B000039BFEF74FFC0CB010BDC04655F1010084
:1008C00000B500238DB0C9B20192039399420BD1B8
:1008D0000A4B002B10D06B460621595E082004AA53
:1008E000039BFEF737FC07E0202304A903AA039328
:1008F00000F070F90028EBD10DB000BD55F10100FA
:1009000082B002B070477047F0B5474680B488B0F7
:10091000071C031C040C050A3F0E01900291081CE1
:10092000161C111C0392DBB20022A446B8460592A5
:100930000F0C06920792EDB2041C052B06D928482D
:1009400003F002FC08B004BC9046F0BD254A9900B3
:1009500050588746244803F0F7FBF3E7FFF7D3FF2F
:10096000F0E768466346C6825EB242460783774236
:1009700002754783201C01F061F8281C0599069A2E
:10098000FFF79EFFDEE719490B68587E002802D169
:10099000174803F0D9FB201C01F050F86A46D682B4
:1009A0001783281C0599069AFFF7AAFFCAE7614634
:1009B0004BB207A842465E42474602704680002F6F
:1009C00004D0002C07D0201C01F038F8281C07990F
:1009D000FFF75AFFB6E7074803F0B6FBF3E7C04658
:1009E0009E030500685F02009B030500B8390020E4
:1009F0007E0305008C030500F8B5354C354D00230A
:100A0000061C2B706360344800F034FD2060002821
:100A100021D0324B427E1968002A20D1481E0F286F
:100A200051D8181D01F03CFB27687B7E0127002B65
:100A300015D1002E3CD1012000F0ACFF267204201D
:100A400001F056FB2168487E002812D002272F7043
:100A5000012001F091FC01232B700020F8BD02263B
:100A60002E700027042001F043FB2168487E0028F7
:100A7000ECD1002001F094FC2668737E002BE5D1B8
:100A8000002001F0AFFB2068427E002ADED1012069
:100A900001F00AFC21684C7E002CD7D1002001F027
:100AA00097FC012001F068FC0120002FD6D1D2E78D
:100AB000012E03D005222A700027D3E7022000F080
:100AC00069FF2672BBE7072129700027B1E7C046FE
:100AD000B83900202C3A002009090200E420002047
:100AE00008B506480368002B03D000F0A7FE0120DC
:100AF00008BD034902220A700020F9E7B839002036
:100B00002C3A002001480368587E7047B83900200D
:100B100008B500F037FF002802D0FFF7F4FE08BD4B
:100B200000F0ECFEFBE7C046F8B5041C0D1C161CDB
:100B3000072811D800291ED0202A04D9234D0624C5
:100B40002C700020F8BD00F0E5FF022809D91F4FE6
:100B500009263E700020F5E71C4B04221A70002085
:100B6000F0E7201C00F0DAFF022809D9174B0A220F
:100B70001A700020E6E71549032008700020E1E71D
:100B800000F0D0FF01281CD900F04EFF427801236D
:100B900013434370071C0670291C321C023004F0FA
:100BA00075FEE0B2391C00F053FF041C0120002C3C
:100BB000C8D1074803F0C8FA044E0F25357000204D
:100BC000C0E70249082008700020BBE72C3A00204B
:100BD000DA00050070B5041C0D1C161C00F09EFF09
:100BE00000280DD0002D0FD0201C00F085FF3268AA
:100BF00003789A420DD2134D06242C70002070BD4C
:100C0000104B0B221A70FAE70E49032008700020DF
:100C1000F5E7201C00F066FF041E0AD02278A11C14
:100C20003260281C04F032FE201C00F007FF012077
:100C3000E5E7054803F088FA02480F260670002011
:100C4000DDE7C0462C3A00200201050008B5072860
:100C500004D9044B04221A70002008BD00F05AFF8A
:100C6000FBE7C0462C3A002008B5072802D800F060
:100C700055FF08BD024B042201201A704042F8E7DC
:100C80002C3A002008B500F04DFF0623181A08BDC5
:100C900038B5041C072805D90B4B04221A7000250F
:100CA000281C38BD00F036FF00250228F8DC201C87
:100CB00000F034FF0228F3DC00F034FF0121814210
:100CC000AD416D42ECE7C0462C3A002008B50B4A16
:100CD00011684B7E002B0BD1072804D9084A042148
:100CE0001170002008BDC0B200F020FF0120F9E71C
:100CF000034B0C2018700020F4E7C046B8390020E0
:100D00002C3A002008B5072804D9054B04221A7094
:100D1000002008BDC0B200F025FF0120F9E7C04661
:100D20002C3A002038B50F4C051C2068437E002B60
:100D30000ED1002D06D0012D0FD00B4D05242C70A7
:100D4000002038BD012000F025FE25720120F8E7C3
:100D5000054902220A700020F3E7022000F01AFE83
:100D6000F3E7C046B83900202C3A0020014B187A2E
:100D70007047C046B839002010B50C1C1249031C3E
:100D80000868427E002A14D1621E0F2A0CD8002B5C
:100D900014D00E48191C221C10C004F077FD211C31
:100DA00001F07EF9012010BD0949072008700020DC
:100DB000F9E7074B02241C700020F4E7044B0324DE
:100DC0001C700020EFE7C046B8390020E420002066
:100DD0002C3A002010B50C4C0B682268934209D3C2
:100DE000102B07D800280AD00A60211D04F04EFD00
:100DF000012003E0054B07221A70002010BD034CB0
:100E000003212170FAE7C046E42000202C3A00209C
:100E1000014B18687047C046E420002008B5074A17
:100E200011684B7E002B04D0054B02201870002067
:100E300008BD00F0A1FE0120FAE7C046B839002045
:100E40002C3A002008B500F021FF08BD08B5074A7C
:100E500011684B7E002B04D0054B02201870002037
:100E600008BD00F09BFF0120FAE7C046B83900201A
:100E70002C3A002008B501F01BF808BD08B50A4B54
:100E80001A68537E002B0AD1072804D9074B042285
:100E90001A70002008BD01F091F80120FAE703491B
:100EA000022008700020F5E7B83900202C3A002015
:100EB00010B50C1C072806D8002909D001F0BAF893
:100EC0002070012010BD054B04221A700020F9E7A4
:100ED0000249032008700020F4E7C0462C3A0020A5
:100EE00008B5074A11684B7E002B04D0054B022041
:100EF0001870002008BD01F015F90120FAE7C0467E
:100F0000B83900202C3A002008B501F011F908BDCD
:100F100008B50E4A11684B7E002B12D101280AD069
:100F20000223002808D00123022805D0084A0E21F8
:100F30001170002004E00023181C01F0B5F9012015
:100F400008BD034B022018700020F9E7B8390020D3
:100F50002C3A002008B501F007FA0023012801D837
:100F6000014B1B5C181C08BD9C5F020008B5134AAE
:100F700011684B7E002B0AD1062804D9104B0E2194
:100F80001970002007E00F4A800011588F460C4B63
:100F900002201870002008BD002001F023F9012074
:100FA000F9E70420F9E7EC20F7E7F420F5E7F8206B
:100FB000F3E7F020F1E7FC20EFE7C046B839002066
:100FC0002C3A0020805F020008B501F013F9031CE1
:100FD0000520F02B0AD00AD90320F82B06D00220D6
:100FE000FC2B03D00420F42B00D0012008BD0020EE
:100FF000042BFBD00620EC2BF8D00120F6E7C046EE
:1010000008B5074A11684B7E002B04D0054B02201F
:101010001870002008BD01F091F80120FAE7C046E1
:10102000B83900202C3A002008B501F08DF808BD31
:1010300008B5074A11684B7E002B04D0054B0220EF
:101040001870002008BD01F047F80120FAE7C046FB
:10105000B83900202C3A002008B501F043F808BD4B
:1010600008B5074A11684B7E002B04D0054B0220BF
:101070001870002008BD01F08BF80120FAE7C04687
:10108000B83900202C3A002008B501F099F808BDC5
:1010900008B5074A11684B7E002B04D0054B02208F
:1010A0001870002008BD01F055F80120FAE7C0468D
:1010B000B83900202C3A002008B501F063F808BDCB
:1010C00008B5074A11684B7E002B04D0054B02205F
:1010D0001870002008BD01F079F80120FAE7C04639
:1010E000B83900202C3A002008B501F075F808BD89
:1010F00008B50D4A11684B7E002B0ED10023002845
:1011000004D1181C01F04CF9012008BD012809D0B8
:10111000064A0E2111700020F7E7044B02201870D8
:101120000020F2E70123ECE7B83900202C3A002038
:1011300008B501F03BF901384342584108BDC046AB
:1011400008B50D4A11684B7E002B0ED100230028F4
:1011500004D1181C01F03CF9012008BD012809D078
:10116000064A0E2111700020F7E7044B0220187088
:101170000020F2E70123ECE7B83900202C3A0020E8
:1011800008B501F02BF901384342584108BDC0466B
:10119000014B18787047C0462C3A0020014B0022C2
:1011A0001A7070472C3A0020014B58687047C046AF
:1011B000B8390020014B00225A607047B83900202E
:1011C0000249034B0F220A70586070472C3A0020E6
:1011D000B839002070B5274B274A0024D45086B078
:1011E00001F0E8FD254D264E2C606C602C61AC6052
:1011F000EC603378012B2BD0022B0ED001F0DAFDFE
:1012000020482C61047002F045FE032829D0317873
:10121000022902D07468002C15D01B4B1B4ADD68D4
:101220001560707800213070042403A80026047033
:1012300041600181418146708670C67002F04AF8B3
:10124000012006B070BD104B104A9D681560E8E79C
:1012500002F020FE0028DAD00021002002F082F9FE
:10126000D5E700210022002300200094019402F021
:101270008FFBCCE71405000000F001404C3A002041
:10128000303A0020643A0020683A0020C839002033
:10129000F0B5474680B4464B8021C8001A5884B048
:1012A000012A1CD0434C00261B59002B17D0424C5E
:1012B000606900281ED002F0EDFD012802D03F48F1
:1012C00002F042FF3E4DEB68197D002930D101F05C
:1012D00071FD002E15D104B004BC9046F0BD394A12
:1012E000354C56686069377820250026BD42764126
:1012F0000028E0D103F0C2FB0028DCD101256561A4
:10130000D9E70120012102F02DF9042814D903F0B6
:101310003DF82D4A2061536963602478022C0FD078
:10132000002B0DD197682F60002003F035F8D2E72D
:10133000264802F009FFCAE7254E8200B758BF468B
:10134000D2682A60F0E7234802F0FEFEDFE702F0F1
:1013500063FA061CE089A789804602F057FAEB6819
:101360000022997D01AB1F814746029658701A7082
:101370005F819970DA70181C01F0ACFFC7E702F0CA
:101380004BFA061CE089A789804602F03FFAEB6819
:1013900000219A7D01AB19709A7041460122029694
:1013A00058701F815981DA70181C01F093FFAEE765
:1013B0000010004034050000303A002057060900B4
:1013C000C83900204C3A0020683A0020580609002D
:1013D000A05F02007706090038B51C48002484810C
:1013E000C48102F013FA1A4C1A4A0125A05002F0E7
:1013F0000DFAA621CB008540E55002F00DFA164DFE
:10140000286002F00FFA68601448E86002F09CFF60
:10141000A121CB00E05002F03DFD012807D002F0F1
:1014200039FD022802D00E4802F08EFE002001F0A5
:10143000D3FB03F0BBFB0B4C0B4BE268A225E9008E
:1014400058500A4D5168595138BDC046303A0020B5
:10145000001000402C0500004C3A002091120200C0
:10146000DE050900C839002000F001401405000025
:101470007047C046F8B55F4656464D464446F0B400
:10148000061C012585F31088C54A00230321002787
:10149000012511709370536093609381D381136120
:1014A0005361557017765776BE4CBF4AA120135131
:1014B000C4001151BD48BE4C0360A360636043602B
:1014C0008360C3600361077501F036FDE06003F0DF
:1014D0006DFA301C01F0E4FE01F080FF002002F004
:1014E000FBFD201C02F034FEB24EC2208100725877
:1014F000B14BC02713407350BA00B058AF49C52351
:101500000140B1509A00B158FF27B9434020014330
:10151000B15085F31088A24D2B78012B00D115E135
:101520006E7E01276F70002E00D007E1FFF752FE9C
:101530002B78A34E9C46002383F31088A14BA32154
:10154000CF00D859A04980220140D0020143D9518F
:101550009E4A9F4FFF213161A4209F509D4FC200A2
:101560009F509D4A9858884398509F5880203843F0
:1015700098509858914F38409850BA4680209F58BC
:10158000C00107439F509F588B4807409F50834698
:101590009858C027814638044F4638439850985889
:1015A0000002070A9F50985880278146B8054F4689
:1015B00038439850A522D2009F58381C8843985031
:1015C0009858A021014399509F5850463840985050
:1015D0009F58C021C8013843985099585846084030
:1015E00098509858E0273904014399509F58380281
:1015F000010A9950802798587905014396209950FF
:101600000A2781000223624677617160F360022A33
:1016100003D06F68002F00D18DE00F22B26002234B
:1016200023606E4F674C6E4800227283E25123584C
:10163000FF27BB432350215802220A432250694B03
:101640006948A721E0506948CA00A223A050D900E8
:10165000674A684B0120605013606749674B684ACE
:101660000B606849684B11606849694A1960694BA9
:1016700000211360307670763177002002F01EFD75
:1016800069233360474B6448E6580F223040E050EE
:10169000E658062196430E43E650E0585F4EC022BE
:1016A000910206400E43A320E650C00022585C4B36
:1016B00080211340235026584A0432432250235895
:1016C0003E4EBB4320273B43235021580E4026501B
:1016D0006C78012C02D0534802F036FD01242C70A6
:1016E00000260024AC706C60AC60AC81EC812C6195
:1016F0006C612E766E7603F055FA344D2A4B4A49CA
:101700005851A3224948D7000326D951C0251E505D
:101710008022284E80216800D70002234D033750D5
:101720003350355084F310881D483CBC9046994690
:10173000A246AB46F8BD0F23B36071E703F098F9FA
:10174000012807D029781E4E8C46F4E60126B446BF
:101750001B4EF0E602F0E2FC00281DD13448642163
:10176000002203F091F9164E307F00280FD1314945
:101770000127802380220F605200D90588500F6016
:10178000C046C046C046C04688580028FCD003F07A
:1017900047F92F78BC46CEE6274802F0D5FCDDE7B6
:1017A000303A00201405000000F001404C3A0020BF
:1017B000C839002000E100E0FFFF00FFFF00FFFF4D
:1017C000683A002000100040FFFFF8FF1C050000F1
:1017D000B050E02070D010A0240500000C050000DF
:1017E000340500003C050000FFFF0000211001004F
:1017F0002417004000500078281700404E00005485
:101800002C17004002800C60301700401164660005
:1018100034170040DEC08F82FFFEFFFFFFFFF0FFA6
:10182000FFFFFFFDDA01090004110040040500007C
:101830002941020014050040EC05090038B5264C8A
:10184000637E002B13D1254DA86800283CD0696821
:10185000002911D002F056FC002809D1002002F026
:1018600043FC0122627603F003F901280CD038BD55
:101870001B4802F069FCF1E71A4802F065FC02F02F
:1018800041FC0028EAD0F3E702F048FC00281FD111
:1018900015486421002203F0F7F8144C237F002B35
:1018A0000FD1134A0125802080211560C90542000F
:1018B0008B500D60C046C046C046C0468B58002BBA
:1018C000FCD003F0ADF8D2E70A4802F03DFCBEE7D9
:1018D000094802F039FCDBE7303A0020C839002023
:1018E000080209000102090029410200683A0020AB
:1018F0001405004000020900EC05090008B50123A9
:1019000083F310881A4B5A7E002A02D09878002858
:1019100003D0002080F3108808BD0121997003F0E6
:10192000A7F80128F5D102F0F9FB00281BD100220D
:101930001048642103F0A8F80F4A137F002B0FD141
:101940000E4A0120106080218022C90552008B5070
:101950000860C046C046C046C0468B58002BFCD02D
:1019600003F05EF8D5E7064802F0EEFBDFE7C0467D
:10197000303A002029410200683A00201405004056
:10198000EC05090002480123407E58407047C046DC
:10199000303A002008B5012383F310881A4B1A78D7
:1019A000824205D05870587E002805D1FFF712FCFE
:1019B000002080F3108808BD03F05AF80128F7D101
:1019C00002F0ACFB00281BD164211048002203F078
:1019D0005BF80F490B7F002B0FD10E4A01201060DE
:1019E00080218022C90552008B500860C046C04645
:1019F000C046C0468B58002BFCD003F011F8D7E747
:101A0000054802F0A1FBDFE7303A0020294102003F
:101A1000683A002014050040EC050900014B1878D5
:101A20007047C046303A002008B5012080F3108886
:101A300002F038FB002383F3108808BD08B50121AC
:101A400081F3108802F032FB002383F3108808BD75
:101A500008B5012383F3108802F022FA00280BD086
:101A60001B4B9A78002A02D1587E002808D100200A
:101A700080F31088012008BD80F310880020FAE769
:101A800002F0F6FF0128F2D102F048FB00281BD13A
:101A900064211048002202F0F7FF0F490B7F002B52
:101AA0000FD10E4A0120106080218022C90552000A
:101AB0008B500860C046C046C046C0468B58002BBD
:101AC000FCD002F0ADFFD2E7054802F03DFBDFE7B6
:101AD000303A002029410200683A002014050040F5
:101AE000EC05090008B5012181F3108802F0C8FA5D
:101AF000002383F3108808BD08B502F0BBFA08BDC7
:101B000008B5012181F3108802F09CFA002383F3C9
:101B1000108808BD08B502F0A9FA08BD08B502F0A2
:101B2000BBFA08BD08B502F0C5FA08BD10B5041C23
:101B3000012383F31088094B1A78002A02D0587EBB
:101B4000002806D1201C02F081FA002181F31088C0
:101B500010BD034802F0F8FAF4E7C046303A00201E
:101B60009E02090008B5012181F3108802F08EFA67
:101B7000002383F3108808BDF0B5C2B201235510CD
:101B800097101F401D40D61079011E40AD01D411A1
:101B900037010D435611111119401E4025433D4395
:101BA000CC00B7009111060AF6B2194025433D4317
:101BB0004C007710B1101F40194025431A40BC015A
:101BC0004901F710AC461F40D5012143F2113C01F9
:101BD000114332111A4021437411D7001C40A20056
:101BE0003943B7111F401143020CD2B27C001E4092
:101BF00021435710F40196101F401E407601BF018B
:101C00003743D6113743D6101E40360137431611DD
:101C10001E40F600374356111E40B600374396115A
:101C20001E401A4076003743D601624615433A1CDF
:101C3000324321432D0616020F042E433E43070E66
:101C40007910BD1019401D408A01F8106D01FC117A
:101C50001840154339110201194025437811CC0071
:101C600018401543B91182001940254315434C0013
:101C70001F402543F8012B1C0343024A024933430A
:101C80008B50F0BD1C0500000010004070B5414BAA
:101C9000414AD2580123D6B27510B0101D401840E9
:101CA000AC014001F510F1111D40204308432C0107
:101CB0003111194020437411CD001C40A10028436C
:101CC000B5111D400843110AC9B26C0020434D10E4
:101CD0008C101D401C406401AD012543CC112543EF
:101CE000CC101C40240125430C111C40E40025436A
:101CF0004C111C40A40025438C111E401C4019406F
:101D0000F601640025433043CC01160CF6B225439E
:101D10002904B41075101D401C40000608436401DE
:101D2000A9010C43F110F51119402C430D0131119B
:101D300019402C43CD00711119402C438D00B11175
:101D400019401E402C434D00120EF1012C430C4350
:101D50005510011C90101D40184026024001AC0196
:101D600031432043D611D5101D40304316112C01AC
:101D70001E40F500204354111C4028439511A60035
:101D80001D4030436C0013402043DB0118430843DF
:101D900070BDC0461C05000000100040F0B5C2B286
:101DA0000123551097101F401D40D61079011E4089
:101DB000AD01D41137010D435611111119401E40C8
:101DC00025433D43CC00B7009111060AF6B21940F5
:101DD00025433D434C007710B1101F401940254367
:101DE0001A40BC014901F710AC461F40D501214300
:101DF000F2113C01114332111A4021437411D700F2
:101E00001C40A2003943B7111F401143020CD2B24B
:101E10007C001E4021435710F40196101F401E40C5
:101E20007601BF013743D6113743D6101E40360125
:101E3000374316111E40F600374356111E40B600B8
:101E4000374396111E401A4076003743D60162464A
:101E500015433A1C324321432D0616020F042E432C
:101E60003E43070E7810BD1018401D408201FC1043
:101E70006D01F9111C4015433A1120011A400D4320
:101E80007C11D1001C400543BA11A0001A400D433B
:101E9000054351000D431F40FC012B1C2343A4208C
:101EA00002493343C2008B50F0BDC04600100040D1
:101EB00070B5A426404AF300D2580123D6B275105B
:101EC000B0101D401840AC014001F510F1111D404B
:101ED000204308432C013111194020437411CD00D7
:101EE0001C40A1002843B5111D400843110AC9B286
:101EF0006C0020434D108C101D401C406401AD014E
:101F00002543CC112543CC101C40240125430C1142
:101F10001C40E40025434C111C40A40025438C11B7
:101F20001E401C401940F601640025433043CC019B
:101F3000160CF6B225432904B41075101D401C4040
:101F4000000608436401A9010C43F110F511194082
:101F50002C430D01311119402C43CD007111194052
:101F60002C438D00B11119401E402C434D00120E20
:101F7000F1012C430C435510011C90101D401840DA
:101F800026024001AC0131432043D611D5101D403B
:101F9000304316112C011E40F500204354111C4003
:101FA00028439511A6001D4030436C001340204388
:101FB000DB011843084370BD00100040F0B5032258
:101FC0000240D200FF239340DB43184C032829D85A
:101FD000174825584E102B40235001231F1C0F403B
:101FE0001E40B601FF0137438E101E407601374375
:101FF000CE101E40360137430E111E40F600374307
:102000004E111E40B60037438E1133405E003B1C1C
:1020100033431F1CCE11374325589740391C2943A1
:102020002150F0BDA520C000D3E7C04600100040FD
:102030002405000000B503220240D200FF23934094
:10204000032824D81449154841580B40D340DBB22B
:102050000122101C5910184011408901C001084389
:102060009910114049010843D91011400901084352
:1020700019111140C9000843591111408900084342
:1020800099110A4052001043DB11184300BDA521ED
:102090000248C9004158D8E724050000001000405C
:1020A00038B5051C0C1E08D0002D0BD0074B0020A6
:1020B0009D605C6002F05AF938BD054802F044F8B2
:1020C000002DF3D1034802F03FF8EFE7C8390020B4
:1020D000EE020900EF020900014B58617047C0464B
:1020E000683A0020014B58697047C046683A0020A2
:1020F00010B5054AA323DB00D4580104034820404F
:102100000843D05010BDC04600100040FFFFF8FF4C
:10211000A320034AC300D1584803400F7047C0466C
:1021200000100040014B18617047C046683A00201B
:10213000014B18697047C046683A0020014B58604F
:102140007047C046683A0020014B58687047C04647
:10215000683A002000B5084A084BD0601978022977
:1021600006D05B68002B03D190680549086000BD6C
:10217000034A1060FBE7C046683A0020303A00206E
:10218000C8390020014BD8687047C046683A002023
:1021900000B5084A084B90601978022905D05B68A1
:1021A000002B02D10549086000BDD26803480260D7
:1021B000FAE7C046683A0020303A0020C8390020CB
:1021C000014B98687047C046683A0020014B58831D
:1021D0007047C046683A0020014B588B7047C04694
:1021E000683A0020014B024AD05070470C050000AD
:1021F00000100040024B034AD058C0B27047C0469E
:102200000C0500000010004010B51A4B1A4AFF21BF
:102210009C588C439C50012817D0002802D1995813
:10222000995010BD02281AD0032803D0134801F09A
:102230008BFFF6E79958124C084398501148A72194
:102240001C50CA0000209850EBE79C58204398503F
:102250000C48A72419500C48E2009850E1E79C581C
:1022600008492043094C98505C50A7200849C200F7
:102270009950D6E7001000403405000064030900BF
:10228000FFFFFF003C05000007010000FFFF00000A
:1022900021100100024B034AD058C0B27047C0461B
:1022A000340500000010004000B5012818D00028B7
:1022B00013D1A2231C49DA0088501C4B1C4A1D482C
:1022C0001A601D491D4A1E4B08601A601D4A1E4BAC
:1022D0001E481F491A60086001E0022814D000BDA2
:1022E000A221114ACB00D05010491148114A086070
:1022F000114B184812491A600860174A124B1748C8
:1023000013491A600860EAE7A2220749D300C850BF
:10231000064A074807491060074B094A10481960E8
:102320001060104AD3E7C046001000402417004058
:10233000005000784E0000542817004003800C60C5
:102340002C17004022647200301700403E420F827A
:102350003417004002800C6011646600DEC08F827A
:1023600008800C6088647200A221024ACB00D05819
:10237000C0B270470010004010B5041C0548C36887
:10238000002B02D004490C7510BD044801F0DCFE9E
:10239000F8E7C046C83900204C3A002097030900EE
:1023A000014B18767047C046683A0020014B187EF2
:1023B0007047C046683A0020014B58767047C046C7
:1023C000683A0020014B587E7047C046683A0020AA
:1023D000014B18777047C046683A0020014B187FC0
:1023E0007047C046683A002008B501F067FE08BD96
:1023F00038B51349C868437D002B19D1114C124DD3
:10240000124A13480021515128C80020ED1A01F04A
:102410006BFE61698D4203D80E4801F095FE61693B
:10242000691A0D48012202F02FFB0023636138BDB9
:10243000012000F059FC034CA2890132A281DEE7A1
:10244000C8390020303A00201405000000F0014097
:10245000683A0020090609002941020038B500F059
:10246000A9FC1F4C002525611E491F4D01222A7021
:102470000969A6201D4AC300D15001F00BFD0028B8
:1024800022D100F05DFF012804D901F0D1F960608C
:10249000002821D0022000F09FFB002000F024FC47
:1024A00001F0F8FC032802D0114801F04DFE2B7812
:1024B000012B02D00F4801F047FE0F4802220021F5
:1024C0002A702161E06038BD01F0E4FC0328E1D00E
:1024D0000A4801F039FEDDE7094801F035FED9E789
:1024E0004C3A0020683A0020643A00200010004076
:1024F000300509003C0509001925020028050900DE
:102500002305090008B5034B05221A70FFF7A6FF43
:1025100008BDC046643A002070B5544C86B060686F
:102520004378DA074ED5002323608026504BF10014
:10253000504D5A5803202870012A03D04E495A584A
:10254000002A2BD163681E78202E27D84849812382
:10255000DE008E59494A05A88A5801230090311C93
:102560000120019401F014FA012836D0002830D05F
:1025700002284FD0032802D0414801F0E5FD3C4B32
:102580008121C8001E583F4A9E502368002B5CD012
:102590003D4E266104242C7006B070BD8120344A63
:1025A000C300D358002600200021002200230096FB
:1025B000019601F0EDF966750428E0D0334801F08A
:1025C000C3FDDCE701F080FD0028ACD000F0F2FB99
:1025D000A9E72F4801F0B8FDD1E70598002802D0FF
:1025E0002C4801F0B1FD301C01F056FD002835D01B
:1025F00029490223C8680021827D02A882700370E5
:102600004160018141814670C17000F063FE01228A
:102610006275B4E7059A002A24D0301C01F03CFD15
:10262000002817D01C490223C868059A817D02A89A
:10263000037046700023012642600381438181704C
:10264000C67000F047FE667599E723616375FFF772
:1026500005FFA1E7114801F077FDE3E7104801F01D
:1026600073FDC5E70F4801F06FFDD6E74C3A002037
:1026700000100040643A0020340500000C04000003
:10268000810509002C050000052502008A050900C6
:10269000750509006F050900C83900207905090092
:1026A0007005090078050900F0B54F464646C0B4EC
:1026B000B54C85B06369002B31D06368002B01D025
:1026C000013B63602278B14D022A5CD0002B5AD1C5
:1026D000AF68AF4E3760A178002900D0ADE0022A84
:1026E00000D0B9E0AB4F3A78033A012A00D843E171
:1026F00001F040FDA84AA121C8008146131C4B44AB
:102700001E68904601F020FE864200D12FE101F0C4
:102710001BFE47464F443860FFF7A0FE9EE002F0E4
:10272000ADF90028C9D12378012B4FD0022B37D027
:1027300001F020FD62680023002A01D0531E63606F
:102740002078934E8046914F022801D0002B3AD03A
:10275000FB683360A278002A19D16178414506D020
:10276000FEF738FD002800D087E02578A8464246CD
:10277000012A00D1B3E0002A3BD0022A29D08748A1
:1027800001F0E2FC44E0EE6881480660A3E7617E68
:10279000002900D07DE005B00CBC90469946F0BD04
:1027A0007C4E01223578033DE9B28A424041C0B2F5
:1027B0000028BDD0754B59684908616178480122ED
:1027C00002F062F9E7E7B8683060C3E700F0E8FAC2
:1027D000EEE7714EA121C8003558804601F0B4FDE6
:1027E000854200D1CAE001F0AFFD4346F050FFF74B
:1027F00035FE00207D6801F077FC61698D4200D8CC
:10280000B0E0691A66480122002502F03DF96561D1
:102810007D7E012DBFD12678022EBCD060680028B5
:10282000B9D1012E00D1F7E0002E00D1E1E0022E57
:10283000B1D05C4801F088FCADE701F09BFC637E01
:10284000002BA8D002F014F9012834D002F0F4F8DB
:10285000287F00282AD125E001F08CFC00206D683B
:1028600001F042FC61698D420ED9691A4C4801227F
:10287000002502F009F965618DE700207D6801F00F
:1028800033FC61698D42F0D8474801F05DFC616915
:10289000EBE702F0EDF801280DD002F0CDF83F7F14
:1028A000002F03D180270121FA0551600020002666
:1028B00001F01AFC666000F07DFA0023A3706376D5
:1028C00001A8002405210170436003814381447005
:1028D0008470C47000F0FEFC2E4D2C705BE700F09D
:1028E00069FA01F0D7FA002866D07B8B002B03D061
:1028F000A189994200D3ABE002F0C0F8002800D0D3
:10290000A2E0A1222448D300C55801F01DFD854254
:1029100002D0E1890131E18101F016FD1E4DA122B5
:10292000D300E85001F0B6FA012807D001F0B2FA5E
:10293000022802D01D4801F007FC002000F04CF9ED
:1029400002F034F91A49F568A222D300C8506E6823
:1029500018480E5001203D6801F0C6FB61698D42A8
:1029600000D94EE7104801F0EFFB616949E73E7876
:10297000002E00D1D0E671E769681DE7054A167898
:10298000002E00D133E734E7303A0020683A0020C7
:10299000C8390020643A002000100040FC03090000
:1029A000294102001604090009060900DE05090094
:1029B00000F001401405000000F0C2FC0128C9D954
:1029C0002678022E02D0606800285BD001F0F4FC6B
:1029D0000028BFD13B7E002B04D101F0D7FC226937
:1029E0009042B7D100F05AFD0028B3D0FEF7F4FCB6
:1029F000B0E702F03DF8012800D1CCE602F01CF867
:102A00003E7F002E02D18020C205556000200025A7
:102A100001F06AFB6560BEE601F03CFA002800D0D8
:102A2000B9E600F035FD002800D0B4E602F020F849
:102A3000012800D1AFE601F0FFFF3F7F002FE5D175
:102A40008023D9054E60E1E7144801F07DFB58E78B
:102A50000121002000F086FD00F0DEFEE5898146C0
:102A6000A68900F0D3FE01AB41465D8100254A46B0
:102A7000587019701E819D70DD70181C029200F054
:102A800029FC67E7206901F071FC002001F084FC5B
:102A900000F004FD002800D15CE7A7E7B3040900BB
:102AA00010B5074C2378012B02D0064801F04CFBEF
:102AB0000548064A0223002123700161C26010BD4F
:102AC000643A00203C0509004C3A00201925020018
:102AD00038B5374980228B69950001338B61354BBE
:102AE000032404200870C0225C51334C022552009C
:102AF000A550862500226C0080251A516C0088257F
:102B00001A516C0082251A516C00C1251A51AA0075
:102B100008249C50294C25682A7D002A18D0A92514
:102B2000EA009D58A023264A8D75DD0051590842C0
:102B300039D0204B8E20450000220121A1205A517E
:102B40009961C1001E4804254550A921C8001A50AA
:102B5000802518496B00CA58002A20D18621154AC1
:102B60004B00D058002816D18022134B50001D581E
:102B7000AA0702D5134801F0E7FA2368DA68002AA9
:102B800001D0904723685C7D002C03D019680E4863
:102B9000084D295038BD0D4801F0D6FAE4E70C483D
:102BA00001F0D2FADAE70B4801F0CEFAC1E7C046ED
:102BB000883A00200010004000E100E0D8390020F1
:102BC00000F00140B7020A0004050000B6020A0046
:102BD000B5020A00AC020A00F0B557464E4645461B
:102BE000E0B4354C354E237D051C00013618002B12
:102BF00059D1022D41D9324801F0A6FA314801F0ED
:102C0000A3FAC22030490127002283007F42C0205E
:102C10006275CF5043002D480227C7502C4F657076
:102C20003B6818688446A06058682261A2613268D7
:102C30008246E0606260022D13D8327A802090468E
:102C4000820040468850F27A002A1AD1214A604612
:102C50008850895800292AD0767AC1221A4F9100CB
:102C60007E501B7D002B01D0022D15D001216175F6
:102C70001CBC90469946A246F0BD21780029C0D0E0
:102C8000BCE7144A5046885089580029E4D11248BC
:102C900001F05AFA3B68DFE70E4E10480027042582
:102CA000A7758551E2E70E4801F04EFAA1E70D48FD
:102CB00001F04AFA3B68CFE7883A0020B45F02008F
:102CC000F8020A00DD000A000010004000E100E008
:102CD000D83900200405000005010A0000F0014079
:102CE000DB000A0000010A0070B5224C061C637D5F
:102CF0006578002B36D0207D00282FD101230022BB
:102D000023756275022D25D81B4928010A18002E4B
:102D10000AD06B1E012B0CD918490868047D002CC1
:102D200001D0022D08D070BD166833606B1E012BD8
:102D3000F2D8927A2270EFE7114E124B9D596A0732
:102D400014D50F4C10480259002AECD10F4801F05D
:102D5000FBF9E8E70E4801F0F7F9DDE70D4801F06F
:102D6000F3F9CBE70C4801F0EFF9C4E70B4801F0A9
:102D7000EBF9E6E7883A0020B45F0200D83900207A
:102D80000405000000F001400010004041010A006D
:102D90003A010A0022010A0021010A0040010A004A
:102DA0008220034A4300D0580138434258417047BB
:102DB0000010004070B55D4A02218023D1500124EB
:102DC0005B4BC22066428500C0245E5160008026B5
:102DD00088241150B500002061005851012258503C
:102DE00054491A610B78012B45D0023BC046C046BE
:102DF000C046C046C046C046C046C046C046C046A3
:102E0000C046C046C046C046C046012B23D9484AEA
:102E1000882380265D00B40000230120C226535180
:102E20000B7013514442B0001450C0263F48022496
:102E30007600845186267600935103264E708026B4
:102E40007600935182265351750053514B600B7598
:102E50004B75046070BDC046C046C046C046C04603
:102E6000C046C046C046C046C046C046C046C04632
:102E7000C046C046CBE7C046C046C046C046C04676
:102E8000C046C046C046C046C046C046C046C04612
:102E9000C046C046C046C046C046C046C046C04602
:102EA000C046C046C046C046C046C046C046C046F2
:102EB000C046C046C046C046C046C046C046C046E2
:102EC000C046C046C046C046C046C046C046C046D2
:102ED000C046C046C046C046C046C046C046C046C2
:102EE000C046C046C046C046C046C046C046C046B2
:102EF000C046C046C046C046C046C046C046C046A2
:102F0000C046C046C046C046C046C046C046C04691
:102F1000C046C046C046C046C046C046C046C04681
:102F2000C046C046C046C046C04670E700E100E06B
:102F300000100040883A002038B50E4C0225206071
:102F40000D4C8023E5500D490D4B0E48A42219501D
:102F50000D49D0001950FFF72DFF0C480023032224
:102F60000370427043600361037543758375256088
:102F700038BDC046D839002000E100E01410004000
:102F800000F001402405000004110040883A0020B0
:102F9000F0B5474680B4AB4C2069637D013065785D
:102FA0002061002B4ED12678032E51D0032D00D165
:102FB00088E0012D00D189E0022D00D1AFE06078DA
:102FC000A14D0601AB191F7B0025002F05D08627D8
:102FD0009E497A008D586A1E95419E7A80229B4BAD
:102FE0000021900026701950032E61D00120C226C6
:102FF0004742B2009F50C020954F022642008620D3
:10300000BE504600995103236370904A80260023E6
:10301000770088218226D351480077001350D3517E
:10302000636023758B4C21680B69002B00D0984797
:10303000002D04D023689B68002B00D0984704BC67
:103040009046F0BD844801F07FF82678032EADD17C
:103050007E4F86235A00B95890460029A6D0012DEC
:1030600000D1ACE0022D00D0A5E02369012B7DD07A
:103070007A4801F069F82369012B77D0022B00D040
:1030800095E08820002345004146802282207B5025
:103090007B515100450080227B5001207B519100E3
:1030A000C2257B50AA0041422370B950667054E09B
:1030B0000927C221C12678428A00B700082198500A
:1030C000D951A2E7664801F03FF8B8E72369012B20
:1030D0004FD0022BB3D15D4E8622002357008821AA
:1030E000F35148008025802733506A00B900022040
:1030F000C225B35047427350AA00C121B7500825DA
:10310000032288003550227063602375514C236878
:103110001A69002A00D18EE7904723688BE723695C
:10312000012B23D0022B42D1484F86228820002336
:103130005100450080267B5072007B518221802502
:10314000BB504800AE000122C2213B505542BB514A
:103150008800032623703D506670636023753D4BE5
:103160001C682369002B00D068E768E7FFF7B0FC14
:1031700065E73648802200265300C6508227C223C6
:10318000790001229F00334B46505642C121C6515F
:103190008A001F6885503E7D002E03D03149324899
:1031A00004254550E4682F4F284EF45147E72F4837
:1031B00000F0CAFF43E72E4800F0C6FF3FE725694D
:1031C000032D02D02B4800F0BFFFA26980270132F7
:1031D000A2611E4A00230221BE000125C2202170E7
:1031E0006F429351C0258600194897516F0086267B
:1031F000C1517500882753517E0080218225154FCB
:10320000480069001350935103205350396860708F
:10321000636023750E7D002E0ED0A920C0001758C4
:103220008E267500A77553510124A1270E4D946178
:103230000426FC002E511350CB68002B00D0FDE675
:10324000FDE6C046883A0020B45F0200001000404E
:1032500000E100E0D83900208E010A00A2010A0036
:10326000D4010A000405000000F00140E6020A0053
:10327000A7010A009D010A0008B5022804D90548E3
:1032800000F062FF002008BD034B1878434258410C
:10329000F9E7C046F8020A00883A00207047C046A5
:1032A00010B5041E0CD0084A802314600024D46793
:1032B0008421D4508020054B545042031A6010BD25
:1032C000034800F041FFEEE7AC3A002000E100E0E7
:1032D00029000B0070B5164C051C2368002B22D06A
:1032E0008421605809281AD8E66F7300991988005C
:1032F0002218043243CD43C28423E6580136E650F7
:10330000E56F0135E567E26F092A01D90025E56718
:1033100080268021074A74034800145070BD064877
:1033200000F012FFE0E7054800F00EFFD8E7C046C6
:10333000AC3A002000E100E035000B0034000B0047
:10334000034A842013580A21C81AC0B27047C046E5
:10335000AC3A0020F0B557464E464546E0B484B03E
:10336000012383F310881C4B84201A58002A29D08B
:103370008426002101AC8025B14688465A59261C76
:10338000510088188700DA19043283CA83C6494677
:103390005858013858505A5901325A515F59092F1B
:1033A00001D946465E5188F310881E68206861681E
:1033B000A268B047012383F31088074B48461F5883
:1033C000002FDBD1002484F3108804B01CBC90468D
:1033D0009946A246F0BDC046AC3A002008B500F0C0
:1033E000F1FF264A002380201354812013548920A2
:1033F0001354822013548A201354832013548B2097
:103400001354842013548C20135488218520135482
:1034100053548D201A49135486200B704B708B70B7
:10342000CB700B714B7193619363D361D363136260
:1034300013645362536493629364D362D3641363DB
:10344000136513548E201354872013548F20135464
:1034500090208B71CB711354912158205354536396
:103460005365137053609360D360136153610121FE
:103470001354D3679223D15408BDC046343B002077
:10348000C83B0020014B185C7047C046C83B002079
:10349000014A9023D05C7047343B002010B52D4C7E
:1034A0002378002B3DD19021605C00281CD122782C
:1034B0000020002A17D0A06800283AD02169616056
:1034C00006318A00A118CB7803220133DBB2CB701E
:1034D00013405A00437806218B4313434370002066
:1034E0009023E054012010BD2069606001F066F96E
:1034F000A060002822D043780122134003D19222F9
:10350000A15C002911D16068083001F073F902282C
:10351000CDD8E36F002B16D0E36001232370A068A1
:10352000CAE70D4800F010FEBDE70221E3602170FC
:10353000C2E70A4800F008FEA068BFE7084800F0AC
:1035400003FEA068D7E700F0A5FFE067E060002871
:10355000ADD0E2E7343B002001010C0025010C0056
:1035600007010C00F8B5A14C061C23780F1C013B89
:10357000012B02D99E4800F0E7FD0425002E00D063
:10358000A5E0002F00D08EE0002222709026A05DE2
:10359000002877D1606901F02DF9002800D073E090
:1035A0006069A35D01306061082800D177E0002BDD
:1035B00068D101F01FF9002800D0A4E060699026CE
:1035C0000130A35D6061082800D1A8E0002B59D12B
:1035D00001F010F9002800D0A5E0606990230130C7
:1035E000E35C6061082800D1A9E0002B4AD101F01A
:1035F00001F9002800D0A6E0606990210130635CE9
:103600006061082800D1AAE0002B3BD101F0F2F85C
:10361000002800D0A7E0606990270130E35D606179
:10362000082800D1ABE0002B2CD101F0E3F80028F2
:1036300000D0A8E0606990220130A35C6061082896
:1036400000D1ACE0002B1DD101F0D4F8002800D04F
:10365000A9E0606990230130E35C6061082800D133
:10366000ADE0002B0ED101F0C5F8002804D0606950
:1036700001229023E2542061676901376761082FB6
:1036800000D1A0E0281CF8BD606967690123013002
:10369000A355276101236061082800D087E7002136
:1036A0006161002083E76668301C01F05DF8002846
:1036B00005D0A1194F4F002380310B70BB55A66870
:1036C000864200D160E74C4800F03EFD5CE7207880
:1036D000012802D0494800F037FDE368002B7AD07A
:1036E00019780025002900D14BE7E06F65680028B4
:1036F00076D0291C083100F0B1FF002866D00022E6
:10370000E26702253DE76069012220616069902738
:103710000130E25501236061082800D056E70021FE
:103720006161002052E701209022A054606966691F
:103730000130266101236061082800D055E7002789
:103740006761002051E79020012626546069636973
:103750000130236160610123082800D054E7002272
:103760006261002050E760696169902301260130A1
:10377000E654216101236061082800D053E700204E
:10378000606100204FE76069676901219026013080
:10379000A155276101236061082800D052E700206D
:1037A000606100204EE76069626901279021013065
:1037B0006754226101236061082800D051E7002688
:1037C000666100204DE7002161615BE70C4800F075
:1037D000BBFC0225D5E60B4800F0B6FCE3687FE7AA
:1037E000094800F0B1FCE06F83E7C046343B00209D
:1037F0003D010C00C83B00205F010C0043010C00A0
:103800004F010C0044010C00B0020C00014B586841
:103810007047C046343B0020014B98687047C04653
:10382000343B0020014BD8687047C046343B002031
:10383000F8B54F464646C0B4534C2378002B00D011
:1038400093E0E06F002800D193E042780123062541
:10385000861C5F42032115437642B84607704570C7
:1038600089460E4000D18AE0731E9C4665464B4651
:103870000022FF211F272B4012D081700122012B33
:103880000ED0022B02D04246C270022283189970D9
:10389000013205E0C518A970E97085186971043214
:1038A00083189970BD1A531CAC469E42F2D820254D
:1038B000AF1BB946BF08BA00904628D0B21C0126FB
:1038C00071427D1E03262E408218012502C2BD4290
:1038D00016D2002E0BD0012E05D0022E01D002C22E
:1038E000022502C20135013502C2BD4208D2161CB2
:1038F00002C6043551607160D1601032BD42F6D30A
:1039000067464246B91A43448C46C14527D06646AD
:10391000F618D943C518FF22891903270133394006
:10392000AA70B3421BD000290ED0012907D002296A
:1039300002D0C1188A700133C518AA700133C718A4
:103940000133BA70B3420AD05D1C4119C718C518BB
:103950000433BA708A70CA706A71B342F4D1032317
:1039600023700CBC90469946F8BD084800F0ECFB6B
:1039700067E700F08FFDE0670028F2D065E72021BF
:103980008C46002393E7C046343B00207C010C00AA
:10399000F0B55F4656464D464446F0B4C44C83B03D
:1039A00088469B460D99E36F071C92468946002B7B
:1039B00000D179E12078032802D0BE4800F0C4FB92
:1039C000E06F01264378DA0704D49225665D012270
:1039D0005640F6B20425002F00D098E0002600F0F3
:1039E000C3FDE667002020709026A15D002977D1F5
:1039F000606900F0FFFE002800D079E06069A35DF7
:103A000001306061082800D17DE0002B68D100F012
:103A1000F1FE002800D0CBE0606990260130A35D64
:103A20006061082800D1CFE0002B59D100F0E2FE00
:103A3000002800D0CCE0606990270130E35D606130
:103A4000082800D1D0E0002B4AD100F0D3FE002896
:103A500000D0CDE0606990230130E35C606108280C
:103A600000D1D1E0002B3BD100F0C4FE002800D0F3
:103A7000CEE0606990220130A35C6061082800D12B
:103A8000D2E0002B2CD100F0B5FE002800D0CFE012
:103A90009020235C606901306061082800D1D3E088
:103AA000002B1DD100F0A6FE002800D0D0E06069F8
:103AB00090210130635C6061082800D1D4E0002BC4
:103AC0000ED100F097FE002804D0636901219020F8
:103AD00021542361626901326261082A00D1D4E075
:103AE000281C03B03CBC90469946A246AB46F0BDAC
:103AF00060696369012201302361A255012360617D
:103B0000082800D081E70027676100207DE758077B
:103B1000850F404652460E302B061702414685005F
:103B2000083160593F0A0C9A1F430191002349460E
:103B300013600B60874200D19AE0E06F002800D14B
:103B4000C1E0019900F08AFD00239A46002802D0C6
:103B5000E36701239A46002E00D01E1C5146032520
:103B6000002900D187E0019D5B460635AA00A750D9
:103B70000125002B7FD0504F4146785C00287AD039
:103B8000404600F037FE002800D1A7E0404600F094
:103B9000EBFD002800D19BE0414665180C9B803569
:103BA00000222A701860002240463A54022562E042
:103BB00001209023E0546069616901302161012393
:103BC0006061082800D02FE70022626100202BE707
:103BD000902001212154606966690130266101232A
:103BE0006061082800D02EE70022626100202AE7E9
:103BF00060696769012690210130665427610123BD
:103C00006061082800D02DE700206061002029E7CE
:103C1000606963690127902601302361A75501235C
:103C20006061082800D02CE700216161002028E7AE
:103C300060696269902301270130E7542261012302
:103C40006061082800D02BE700266661002027E786
:103C5000606901222061606990270130E2550123EB
:103C60006061082800D02AE700266661002026E768
:103C70000027BA460325002E0AD14A461660574649
:103C8000002F00D0AEE6E06FA8E60027676127E7C7
:103C9000404600F093FD49460860002810D0064BCE
:103CA000012041465854EAE7044800F04DFA81E605
:103CB000343B00209D010C00C83B00209C010C00FF
:103CC000084E0E60DBE7084800F03EFAE06F38E788
:103CD0000C9B1860054800F037FA64E7044800F0D0
:103CE00033FA53E78C3B0020B0020C00D7010C00E4
:103CF000D2010C0038B5664C2378002B75D1902585
:103D0000605D002871D1606900F074FD002800D06A
:103D10006CE06069635D01306061082800D170E08B
:103D2000002B62D100F066FD002800D06DE09023EA
:103D3000E35C606901306061082800D18FE0002BEE
:103D400053D100F057FD002866D19023E35C6069F1
:103D500001306061082800D185E0002B45D100F0DA
:103D600049FD00285FD19023E35C60690130606108
:103D7000082800D17BE0002B37D100F03BFD002864
:103D800058D19023E35C606901306061082800D15C
:103D900071E0002B29D100F02DFD002851D1902396
:103DA000E35C606901306061082868D0002B1CD199
:103DB00000F020FD00284BD19023E35C60690130C6
:103DC000606108285FD0002B0FD100F013FD0028A0
:103DD00004D063690120902160542361626901323B
:103DE0006261082A01D10025656138BD6069616999
:103DF000012201306255216101236061082800D051
:103E00008EE70025656100208AE760690121902224
:103E1000A154206101238CE7606901219022A15403
:103E20002061012393E7606901219022A154206160
:103E300001239AE7606901219022A15420610123A6
:103E4000A1E7606901219022A15420610123A8E724
:103E5000606901219022A15420610123AEE7002571
:103E6000656100206BE700256561002075E700258E
:103E7000656100207FE700256561002089E7002556
:103E80006561002092E70025656100209BE7C04640
:103E9000343B0020014B18787047C046343B00206B
:103EA00070B5051C0E1C00F0B5FC0024002801D1E3
:103EB000201C70BD301C291C00F0D0FB0028F7D05E
:103EC0005F4D01242B78002BF2D19026A85D0028AD
:103ED000EED1686900F08EFC002871D1AB5D686995
:103EE00001306861082800D18DE00124002BDFD16A
:103EF00000F080FC9023002867D1EB5C68690130FA
:103F00006861082800D182E00124002BD0D100F0A4
:103F100071FC902300285DD1EB5C68690130686119
:103F2000082878D00124002BC2D100F063FC902334
:103F3000002854D1EB5C68690130686108286ED0B4
:103F40000124002BB4D100F055FC902300284BD164
:103F5000EB5C686901306861082864D00124002B9B
:103F6000A6D100F047FC9023002842D1EB5C6869A1
:103F70000130686108285AD00124002B98D100F044
:103F800039FC9023002839D1EB5C68690130686105
:103F9000082850D00124002B00D089E700F02AFC2B
:103FA000002803D09026AC556C692C616B69012404
:103FB00001336B61082B00D07AE70020686177E756
:103FC0006969AC552961012389E7EC546C690123C7
:103FD0002C6193E7EC546B692B6101239DE76969C0
:103FE000EC5429610123A6E7EC546C6901232C6190
:103FF000AFE7EC546B692B610123B8E76969EC54B6
:1040000029610123C1E700226A6100206DE70026D3
:104010006E61002078E700206861002082E70022BE
:104020006A6100208CE700266E61002096E7002080
:1040300068610020A0E700226A610020AAE7C0466C
:10404000343B002008B500F0B9FB08BD08B5054AAF
:1040500000231118044A80310B70135400F0E0FB68
:1040600008BDC046343B0020C83B002008B500F026
:10407000C1FB08BD08B5083000F0A0FB08BDC04674
:1040800008B5083000F070FB08BDC04608B5083020
:1040900000F0C6FB08BDC04608B5083000F0AAFB1A
:1040A00008BDC04608B500F0F5F908BD08B500F038
:1040B0005BFA08BD08B500F0ADFB08BD014A9223CC
:1040C000D0547047343B0020014A9223D05C7047A3
:1040D000343B00207047C046024B987058701870EF
:1040E0007047C046D03B002010B5041C012802D9FF
:1040F000024800F029F8024B5C7010BD2A000D0048
:10410000D03B0020014B18787047C046D03B0020C0
:10411000014B98787047C046D03B0020014B58783F
:104120007047C046D03B002008B5054B1878597839
:10413000987004488A0019701358984708BDC04603
:10414000D03B0020F820002008B5FDF739F808BD65
:1041500010B5041E05D0054B00221C605A609A6001
:1041600010BD0348FFF7F0FFF5E7C046DC3900203B
:104170002A00010000B5094B19689A6808680132E5
:104180009A60824208D35A684968002001329860D8
:104190005A608A4200D3586000BDC046DC39002016
:1041A000F0B5474680B400281DD001281ED0184F16
:1041B000BD683B6844191D68BC60201C291C9846DA
:1041C00001F03EF87E6886197E60AC4203D3641B22
:1041D000A542FCD9BC60404643689E4203D3F61A10
:1041E000B342FCD97E6004BC9046F0BD084B196810
:1041F0009A68086801329A608242F4D35C68496820
:104200000020013498605C608C42ECD35860EAE78F
:10421000DC39002002490A688B681068C01A7047B0
:10422000DC39002038B50E4D041C28684368A342D1
:1042300011D96B680020A34209D02A689C4207D993
:104240001268A868DB431C19151A6243A81838BD08
:1042500051686418F4E70348FFF776FFE9E7C046C2
:10426000DC3900206800010070B5041C0D1C884278
:1042700014D20C4E306803689D420BD8B368E01A24
:104280009C4206D800209D4203D835682A68D11A7E
:10429000081970BD0448FFF757FFEFE70348FFF721
:1042A00053FFE6E7DC3900207E0001007D000100BD
:1042B000F8B5214C061C20680F1C4368151C9A4257
:1042C00026D263689D420FD022680AD91268A1687D
:1042D000DB435D19501A6A438018002804D0801906
:1042E000F8BD51686D18F1E7BE421ED223681A6806
:1042F000974214D8A1688E420ED88F4219D8511A0D
:1043000088198842ECD35C68013C62438018E7E777
:104310000A48FFF719FFD4E7701A511AF1E7084865
:10432000FFF712FF23681A68E4E70648FFF70CFF5F
:10433000DCE7511A0020E4E7DC39002068000100C6
:104340007E0001007D00010010B5064C2268636804
:1043500051688B4203D30448FFF7F6FE0CCC9268F9
:10436000D05C10BDDC390020B200010038B5054C2E
:10437000051C20684368AB4202D80348FFF7E4FEFF
:10438000656038BDDC390020B9000100014B586878
:104390007047C046DC39002038B5054C051C206844
:1043A0000368AB4202D80348FFF7CEFEA56038BDD4
:1043B000DC390020C5000100014B98687047C046F9
:1043C000DC39002070B52F4B002220212226232526
:1043D0005A7021249A7025201A701A715A71DA7055
:1043E000DA711A729A719A72DA725A725A739A73ED
:1043F0001A731A745A74DA73DA741A759A749A758D
:10440000DA755A755A769A761A761A775A77DA766C
:10441000DA775A549A7726219A555A552426282510
:104420001A551A5429245A5427209A552B215A5583
:104430002C262A251A551A542E245A542F209A55C0
:104440002D215A55104E114D1A551A5400245A5404
:10445000DE21200103195A00B21804C511705170F1
:104460000223581CD1541154981C1154D81C0433E5
:104470001154222BF5D10134062CEAD1044D2C60C5
:1044800070BDC046F03B0020E03C0020D83B00203F
:10449000D43B002070B52E4A0024106800283ED07E
:1044A000411E2C4B2C4E8D005C5911605E51002931
:1044B00037D01A6894422CD00238032500222840B5
:1044C00013D0012291422CD95E68B44221D0012838
:1044D0000BD0022803D09D680222AC4219D00132D1
:1044E000D2B295005E59B44213D00132D2B2914299
:1044F00017D99600985984420BD00132D2B2960057
:104500009859844205D00132D2B290001D58AC4275
:10451000E5D11248FFF718FE1148FFF715FE201CE1
:1045200070BD104B9C42FAD0191C22318C42F6D03F
:104530001A1C44329442F2D01D1C6635AC42EED0B7
:10454000181C88308442EAD0AA339C42E4D1E6E7C2
:10455000D43B0020D83B0020ADDEADDEF6000300EA
:104560007D000300E03C002070B5344E041C32682E
:10457000052A5ED8324D002A44D02B689C422CD0AC
:10458000511E03200023014013D001239A4239D940
:104590006868844221D001290BD0022903D0A96880
:1045A00002238C4219D00133DBB29900685884424F
:1045B00013D00133DBB29A4224D9980029588C4297
:1045C0000BD00133DBB299006858844205D0013327
:1045D000DBB2990068588442E5D11A48FFF7B4FD70
:1045E0001948FFF7B1FD32689300E858174988422F
:1045F00004D01748FFF7A8FD326893000132EC5051
:10460000326070BD134B9C42EED0191C22318C429B
:10461000EAD0181C44308442E6D0191C66318C4222
:10462000E2D0181C88308442DED0AA339C42D7D115
:10463000DAE70948FFF788FD32689BE7D43B0020A2
:10464000D83B0020F600030086000300ADDEADDE9F
:1046500088000300E03C002085000300F8B5041C3E
:104660000D1C0F2900D96BE0374B1968002950D079
:10467000364B1A6894422CD0481E03260022304044
:1046800013D001228A4244D25E68B44221D001286C
:104690000BD0022803D098680222844219D001323C
:1046A000D2B290001E58B44213D00132D2B28A4224
:1046B0002FD29700D85984420BD00132D2B2960043
:1046C0009F59BC4205D00132D2B29700D8598442DA
:1046D000E5D11F48FFF738FD1E48FFF735FD1E4B9B
:1046E0006E0071195F5C0020022F11D85A1857789C
:1046F000C9191A4F8900CC51517801315170547841
:10470000022C00D9507075195A5D012001325A559A
:10471000F8BD134B9C42E2D0191C22318C42DED0F2
:104720001A1C44329442DAD01E1C6636B442D6D0EB
:10473000181C88308442D2D0AA339C42CCD1CEE718
:104740000848FFF701FD8FE7D43B0020D83B00204D
:10475000F600030090000300F03B0020203C002006
:10476000E03C00208F00030038B5041C0F281AD845
:104770000F4A65002919535C0020002B0FD05318F5
:104780009878081881000B48085899780131997079
:104790009978022904D82C19155D013D155538BDAD
:1047A00000219970F7E70448FFF7CEFCE0E7C04628
:1047B000F03B0020203C0020A600030010B5041CA4
:1047C0000F280DD86000084B0419E25C0020002A75
:1047D00005D018198278054BA1188C00E05810BD3F
:1047E0000348FFF7B1FCEDE7F03B0020203C002040
:1047F000B700030010B5041C0F2802D90348FFF7C7
:10480000A3FC6000024B0419E05C10BDC80003006B
:10481000F03B0020014B18687047C046D43B002095
:10482000F8B54F464646C0B480460F2800D99BE0F5
:1048300041464B00504F99464A464244BB5C002BD0
:104840006ED0BB189E789D78911901359D704B4CA8
:104850009A7888000459022A01D900229A704B469E
:104860004344FD5C013DFD54002C59D0444DAC4205
:1048700000D175E0434E3268052A6CD8424D002ABB
:1048800052D0286884422CD0511E032000230140BE
:1048900013D00123934247D26868A04221D0012956
:1048A0000BD0022903D0A9680223A14219D00133F9
:1048B000DBB299006858A04213D00133DBB29342B7
:1048C00032D298002958A1420BD00133DBB29900B3
:1048D0006858A04205D00133DBB299006858A04265
:1048E000E5D12A48FFF730FC2948FFF72DFC326854
:1048F0009300E8582249884204D02648FFF724FC58
:10490000326893000132EC50326046460F2E93D944
:104910002148FFF719FC4A464244BB5C002B90D16A
:104920000CBC90469946F8BD1C4B9C42E0D0191C2B
:1049300022318C42DCD0181C44308442D8D0191C5F
:1049400066318C42D4D0181C88308442D0D0AA332F
:104950009C42CDD0C8E71248FFF7F6FB32688DE7DE
:104960001048FFF7F1FB85E70F484446FFF7ECFBE3
:104970006200014F9146C8E7F03B0020203C002038
:10498000ADDEADDED43B0020D83B0020F6000300B6
:104990008600030088000300A6000300E03C00201E
:1049A00085000300DB000300D700030008B51648AC
:1049B00080220123D105154A4360CB67C36043645D
:1049C0008358002B02D01248FFF7BEFB0E4AC221CB
:1049D00001208B004042A021D05000234800A2219A
:1049E0001350C900042050500A4A0B49012013609B
:1049F0000870137153718020084BC022C000510011
:104A00005850186008BDC04600A000404405000092
:104A100035000400E8390020AC3D002000E100E052
:104A20000349044B0120002208601A707047C046F9
:104A300000A00040AC3D002030B509498024094A5F
:104A40000123E500C020084C4B604000CB600021F2
:104A50001160117125505171044A137030BDC04668
:104A600000A00040E839002000E100E0AC3D00205B
:104A7000014B18787047C046AC3D0020014B1879B7
:104A80007047C046E8390020F8B5C224051CA000D4
:104A90003A4C80230F1C161C5902394A6379115075
:104AA000002B4FD1002D65D02168002902D0354858
:104AB000FFF74AFB2560012E52D0002E2BD0022E8C
:104AC00048D03148FFF740FB002500202C4B012146
