:020000021000EC
:10F0000000400020E5F80100C1F80100C1F801004E
:10F0100000000000000000000000000000000000F0
:10F02000000000000000000000000000C1F8010026
:10F030000000000000000000C1F80100C1F801005C
:10F04000C1F8010039220200C1F80100C1F8010035
:10F05000C1F8010000000000C1F80100C1F8010082
:10F06000C1F80100C1F801005D3E0200C1F80100D5
:10F07000C1F80100C1F80100C1F80100C1F80100A8
:10F08000C1F80100C1F80100C1F80100C1F8010098
:10F09000FD250200C1F80100C1F80100C1F801001E
:10F0A000C1F80100C1F801000000000000000000EC
:10F0B0000000000000000000000000000000000050
:10F0C00010B5064C2378002B07D1054B002B02D03E
:10F0D000044800E000BF0123237010BD4429002034
:10F0E000000000004C4F020008B5084B002B03D075
:10F0F0000748084900E000BF07480368002B03D019
:10F10000064B002B00D0984708BDC0460000000009
:10F110004C4F0200482900204C4F02000000000024
:10F12000054B1A68002A01D1044A1A601A6810189F
:10F130001860101C7047C04660290020FC39002070
:10F1400008B5282805D039280AD1064B00211868AF
:10F1500002E0044B0121186804F068FF012000E080
:10F16000002008BD04200020054A0123136000236D
:10F17000D1180020043348604C2BF9D17047C046A9
:10F18000B42A00200F48062310B543600E4B1978AF
:10F1900000F022FAE1210322490202230B4804F085
:10F1A000D1FFFFF7E1FF04F0FFFE094B094C1860A7
:10F1B0000121206804F000FF2068012104F036FFDF
:10F1C00010BDC046AC2D0020142B0020B82D00200F
:10F1D000202B00200420002010B50D4C0D49236881
:10F1E0000D485A0189180D4A9B009A5800F004FAFC
:10F1F0000B4B226819680132013122608A4205D125
:10F20000084900220A701A60FFF7AEFF10BDC04621
:10F21000282B00202C2B0020AC2D0020B42A00200D
:10F22000082B00206C29002010B5622808D000248B
:10F23000732818D10D4B1C70FFF796FF012013E0C7
:10F240000A4B0B4A01241C7000231360094A136007
:10F25000094A1360094B1F221C70094B1A6004F005
:10F26000A3FE084B1860201C10BDC046042B0020D4
:10F2700070290020A02A0020A42A00206D29002047
:10F28000A82A0020AC2A0020F8B51D1C234B141C12
:10F290001A78302A01D9013A1A70214B1B78002BB9
:10F2A00001D0FFF799FF012D03D12078FFF748FF28
:10F2B00032E0042D09D163782B2B08D1E3782B2B76
:10F2C00005D1A078FFF7B0FF01E0002D24DD154B3C
:10F2D00000221968914202D122781A600122124854
:10F2E000A75C0168114E0132775401310160AA42D6
:10F2F000F5DB0F4A1868116801311160814206D1AF
:10F30000002119600B4B116001221A7004E00021EA
:10F3100009480A1C00F070F9F8BDC046082000201A
:10F320006C290020102B002068290020742900205F
:10F330001C2B0020B02A0020AC2D0020F8B50B4C6F
:10F340000B4D26680B48B3005F5904F0D3FE7601DD
:10F35000094BF719F854236899004A5901324A5168
:10F36000202A01D101332360F8BDC046082B0020BC
:10F37000B42A0020B82D00202C2B0020F8B5214DF8
:10F38000214C2E682148B3001F5904F0B3FE7601CA
:10F390001F492A68F7197854900007591D4B013707
:10F3A00007511D481E68076801361E60201CBE42BA
:10F3B00027D10132142A00D100222A602A680124B0
:10F3C00055014C559500445100251D60134E144BBA
:10F3D0001D703378322B14D8124C2368934210D00E
:10F3E0005A019B008918C2580F4800F005F933787C
:10F3F0000133337023680133142B01D0236000E004
:10F400002560F8BDA02A0020B42A0020B82D0020D5
:10F410002C2B002070290020A82A00200820002082
:10F42000242B0020A42A0020AC2D0020F8B5554E36
:10F430003378002B1CD004F0B7FD534B1B68C01A67
:10F44000022815D9514B52491A6890004158002999
:10F4500001D1013A1A601A684E4B01321A704E4AB5
:10F460000023136033704D4B01221A70FFF7B4FE76
:10F470004B4F4C4C3B780025002B0DD04A4A13686B
:10F480009D4206DA494B201CE95C04F07FFE013501
:10F49000F4E7002313603B70454D2B78002B0CD014
:10F4A00004F082FD434B1B68C01AFA239B0098426C
:10F4B00003D900232B70FFF757FE04F075FD3E4F74
:10F4C0003B68C01A3D4B1B68984210D93378002B1B
:10F4D0000AD1324B1B78002B06D12A78002A03D19F
:10F4E0003748111C00F088F804F05EFD3860201CDD
:10F4F00004F0E4FD002844D02B78002B2DD004F03C
:10F5000053FD2C4B2F4E186033782F4D002B08D015
:10F5100004F04EFD2D4B1B68C01AFA239B00984245
:10F520002AD82B78002B0CD0294B1A491A680123B2
:10F5300050014354164992005350264A0023136049
:10F540002B70201C04F0BAFD002802DDFFF716FF27
:10F55000F7E704F02DFD1D4B0AE0201C04F0AEFD82
:10F56000002802DDFFF7EAFEF7E704F01DFD064B79
:10F5700018600123337004E001232B7000233370E3
:10F58000CFE7F8BD0C2B0020182B0020082B002003
:10F59000B42A00202C2B0020282B00206C290020CE
:10F5A000B02A0020B82D00206829002074290020EE
:10F5B000042B0020AC2A0020202B0020002000205B
:10F5C000AC2D0020242B00206D2900206429002070
:10F5D000A02A00207029002008B5054A036813609E
:10F5E0004268044B081C1A6000F02AFA08BDC046A5
:10F5F000E8200020FC35002008B5081C111C00F094
:10F6000083FA08BD034B01221A60034B0421002238
:10F6100006C37047F0350020AC2D002008B5024825
:10F6200004F0DCFD08BDC046B82D002038B50A4CFA
:10F63000A12301250022DB006560A560E2500223C2
:10F64000D1229A40A350C1229A40A35011200349CD
:10F6500004F03CFC256038BD00100140E13E020092
:10F6600008B5FFF7E3FF08BD044B054AD050054B32
:10F670001A78012A01D102221A7070471C05000075
:10F6800000200040B42D0020014B0022DA607047BA
:10F69000FC200040014B00221A627047FC20004011
:10F6A00008499022D2008858012330B5184001D073
:10F6B0008B5004E08D580424254201D08C50181C36
:10F6C00030BDC0460020004038B5074D281C04F06E
:10F6D000D1FC064C201C04F0CDFC291C221C044843
:10F6E00004F022FD38BDC046D42D0020DC310020BE
:10F6F000B82D002008B5011C014804F047FD08BDE5
:10F70000B82D0020F8B5041C55480678002E00D00E
:10F71000A5E0E02040001718A0255248ED05BF00E5
:10F720007851E02040000F18BF007E514E4D4F4EE3
:10F73000AA514F4AA95096221202944256D022DC76
:10F740009622920194424BD00EDC962212019442F2
:10F7500041D096225201944240D09622D200944247
:10F760004FD19E23DB024CE09622D201944239D045
:10F77000E122D201944237D0E1229201944240D159
:10F78000EC239B033DE0E1229202944234D00DDC55
:10F790009622520294422BD0E1225202944229D066
:10F7A000E122120294422CD1324B2AE0E122D20211
:10F7B000944223D005DC304A944222D18023DB04DA
:10F7C0001FE0E122120394421AD02C4A944218D12D
:10F7D00080235B0515E09D231B0312E0284B10E0FE
:10F7E000284B0EE0284B0CE0284B0AE0284B08E0A1
:10F7F000284B06E0284B04E0284B02E0284B00E0B1
:10F80000284B294A8421AB50A0230422DB00EA5074
:10F81000264B0022DA601A62C1239B00EA580126B7
:10F820000A43EA500E4B022021491E7004F04EFBA1
:10F83000204BAE601B782E60002B10D11E4B1B6836
:10F84000002B0CD096239B019C4208DD1B4C20789A
:10F85000002803D00134FFF74DFFF8E7FEE7F8BDBD
:10F86000B42D002001030000002000400C05000022
:10F870001405000000F0EB0090D0030040420F00A0
:10F8800000B013000050270000A04E0000F07500EB
:10F8900000509D0000903A0100E0D70100B0AF0396
:10F8A00000705F07A4DFBE0E24050000FC200040AE
:10F8B0001DF60100B52D0020EC350020C44D0200DE
:10F8C00008B5044B5A68044B1A40044B9200D358B5
:10F8D000984708BD00ED00E0FF010000282000204F
:10F8E00000B5FEE708B50C4A0C4B9A4202D104E081
:10F8F00002CA02C30A498B42FAD30A4B01E0002232
:10F9000004C3094A9342FAD3084B9847084B9847D7
:10F91000084B9847FEE7C0464C4F020000200020ED
:10F920004429002044290020FC390020C94302005A
:10F9300039F901006540020000B5074B1B681B0642
:10F940001B0F012B06D1054A054B1A608023054A7F
:10F950001B02136000BDC046E80F00F0DFFF07C0C8
:10F9600004050040186C004070B5C3B2890100283E
:10F9700014DA0F221A40083A114892080324920020
:10F9800012182340FF24DB001068251C9D40A8436B
:10F990000C409C40031C2343136010E08008094A7C
:10F9A0000324C03080002340FF24DB008558261C40
:10F9B0009E40B5430C409C402B1C2343835070BD9C
:10F9C0001CED00E000E100E023DF704728DF704716
:10F9D00043DF704708B5094B1B68002B05D0012396
:10F9E0008340181CFFF7F4FF06E001238340181C36
:10F9F000034AA123DB00D05008BDC046EC350020EF
:10FA000000F0014038B50C4B44B21B68051C0121C5
:10FA1000201C002B05D0FFF7D9FF201CFFF7D4FFD7
:10FA200008E0FFF7A1FF1F231D400123AB401D1C71
:10FA3000024B1D6038BDC046EC35002000E100E0FF
:10FA40002C4B07B51870083843425841C0B200F03B
:10FA500027F9012300284AD0274B06201B68191CD0
:10FA6000133110DB1A1C05200F320CDB191C04208B
:10FA70000B3108DB0320DA1D05DB0220D91C02DB79
:10FA8000581E0343D80F00F0C5FB022300282ED0D8
:10FA90001A4B1B68002B0AD0DBB269465A1E0A704B
:10FAA000313319324A708B706846032106E01449DD
:10FAB0006846052204F03CFF6846052100F0B0FAD4
:10FAC000002801D1052312E0012000F065FC042389
:10FAD00000280CD0AF20800000F0E6FB00F054F9C5
:10FAE0000323002803D0074B01221A600023181CAF
:10FAF0000EBDC046F8350020E8200020FC3500206F
:10FB0000694E0200F43500200A1C084908B5031CA0
:10FB10000878082808D0002B02D1002A00D10B1C3D
:10FB2000191C00F055F900E0002008BDF835002050
:10FB300010B58CB00191202304A903AA041C0393DF
:10FB400000F09CF900280AD0064B002B07D001AB2F
:10FB50000222995EE0B204AA039BFFF795FB0CB06A
:10FB600010BDC04689F2010000B500238DB0C9B2B6
:10FB70000192039399420BD10A4B002B10D06B4694
:10FB80000621595E082004AA039BFFF77DFB07E0CE
:10FB9000202304A903AA039300F070F90028EBD1F5
:10FBA0000DB000BD89F2010082B002B0704770470D
:10FBB000F0B5474680B488B0071C031C040C050A46
:10FBC0003F0E01900291081C161C111C0392DBB21F
:10FBD0000022A446B84605920F0C06920792EDB299
:10FBE000041C052B06D9284803F002FC08B004BC0D
:10FBF0009046F0BD254A990050588746244803F0A6
:10FC0000F7FBF3E7FFF7D3FFF0E768466346C682EA
:10FC10005EB242460783774202754783201C01F09B
:10FC200061F8281C0599069AFFF79EFFDEE719493F
:10FC30000B68587E002802D1174803F0D9FB201C1E
:10FC400001F050F86A46D6821783281C0599069A57
:10FC5000FFF7AAFFCAE761464BB207A842465E42D9
:10FC6000474602704680002F04D0002C07D0201C8D
:10FC700001F038F8281C0799FFF75AFFB6E7074844
:10FC800003F0B6FBF3E7C0469E030500704E02008A
:10FC90009B030500003600207E0305008C03050051
:10FCA000F8B5354C354D0023061C2B706360344885
:10FCB00000F034FD2060002821D0324B427E1968CC
:10FCC000002A20D1481E0F2851D8181D01F03CFBF6
:10FCD00027687B7E0127002B15D1002E3CD1012007
:10FCE00000F0ACFF2672042001F056FB2168487E2C
:10FCF000002812D002272F70012001F091FC01236F
:10FD00002B700020F8BD02262E700027042001F081
:10FD100043FB2168487E0028ECD1002001F094FCD0
:10FD20002668737E002BE5D1002001F0AFFB206830
:10FD3000427E002ADED1012001F00AFC21684C7EBF
:10FD4000002CD7D1002001F097FC012001F068FCC5
:10FD50000120002FD6D1D2E7012E03D005222A7030
:10FD60000027D3E7022000F069FF2672BBE70721D6
:10FD700029700027B1E7C046003600207436002005
:10FD8000B1FB0100EC20002008B506480368002BF9
:10FD900003D000F0A7FE012008BD034902220A702B
:10FDA0000020F9E70036002074360020014803687F
:10FDB000587E70470036002008B500F037FF002855
:10FDC00002D0FFF7F4FE08BD00F0ECFEFBE7C046F2
:10FDD000F8B5041C0D1C161C072811D800291ED0CC
:10FDE000202A04D9234D06242C700020F8BD00F0F1
:10FDF000E5FF022809D91F4F09263E700020F5E7CC
:10FE00001C4B04221A700020F0E7201C00F0DAFFDF
:10FE1000022809D9174B0A221A700020E6E7154973
:10FE2000032008700020E1E700F0D0FF01281CD972
:10FE300000F04EFF4278012313434370071C067005
:10FE4000291C321C023004F073FDE0B2391C00F0B2
:10FE500053FF041C0120002CC8D1074803F0C8FA46
:10FE6000044E0F2535700020C0E7024908200870B5
:10FE70000020BBE774360020DA00050070B5041CD2
:10FE80000D1C161C00F09EFF00280DD0002D0FD079
:10FE9000201C00F085FF326803789A420DD2134D82
:10FEA00006242C70002070BD104B0B221A70FAE74C
:10FEB0000E49032008700020F5E7201C00F066FFC3
:10FEC000041E0AD02278A11C3260281C04F030FDE8
:10FED000201C00F007FF0120E5E7054803F088FA41
:10FEE00002480F2606700020DDE7C0467436002069
:10FEF0000201050008B5072804D9044B04221A7032
:10FF0000002008BD00F05AFFFBE7C0467436002011
:10FF100008B5072802D800F055FF08BD024B04229F
:10FF200001201A704042F8E77436002008B500F04E
:10FF30004DFF0623181A08BD38B5041C072805D93B
:10FF40000B4B04221A700025281C38BD00F036FF28
:10FF500000250228F8DC201C00F034FF0228F3DC26
:10FF600000F034FF01218142AD416D42ECE7C04613
:10FF70007436002008B50B4A11684B7E002B0BD15C
:10FF8000072804D9084A04211170002008BDC0B216
:10FF900000F020FF0120F9E7034B0C20187000202F
:10FFA000F4E7C046003600207436002008B5072864
:10FFB00004D9054B04221A70002008BDC0B200F01D
:10FFC00025FF0120F9E7C0467436002038B50F4CF4
:10FFD000051C2068437E002B0ED1002D06D0012D7C
:10FFE0000FD00B4D05242C70002038BD012000F0EF
:10FFF00025FE25720120F8E7054902220A7000203B
:020000022000DC
:10000000F3E7022000F01AFEF3E7C04600360020B6
:1000100074360020014B187A7047C0460036002025
:1000200010B50C1C1249031C0868427E002A14D12A
:10003000621E0F2A0CD8002B14D00E48191C221C4B
:1000400010C004F075FC211C01F07EF9012010BDE8
:100050000949072008700020F9E7074B02241C70AB
:100060000020F4E7044B03241C700020EFE7C04697
:1000700000360020EC2000207436002010B50C4C17
:100080000B682268934209D3102B07D800280AD0A6
:100090000A60211D04F04CFC012003E0054B0722FF
:1000A0001A70002010BD034C03212170FAE7C046EE
:1000B000EC20002074360020014B18687047C046C1
:1000C000EC20002008B5074A11684B7E002B04D0B5
:1000D000054B02201870002008BD00F0A1FE012091
:1000E000FAE7C046003600207436002008B500F05C
:1000F00021FF08BD08B5074A11684B7E002B04D0CC
:10010000054B02201870002008BD00F09BFF012065
:10011000FAE7C046003600207436002008B501F02A
:100120001BF808BD08B50A4B1A68537E002B0AD18C
:10013000072804D9074B04221A70002008BD01F0DB
:1001400091F80120FAE70349022008700020F5E742
:10015000003600207436002010B50C1C072806D885
:10016000002909D001F0BAF82070012010BD054B1C
:1001700004221A700020F9E70249032008700020C9
:10018000F4E7C0467436002008B5074A11684B7E74
:10019000002B04D0054B02201870002008BD01F090
:1001A00015F90120FAE7C046003600207436002019
:1001B00008B501F011F908BD08B50E4A11684B7E6B
:1001C000002B12D101280AD00223002808D00123D5
:1001D000022805D0084A0E211170002004E00023F7
:1001E000181C01F0B5F9012008BD034B022018705E
:1001F0000020F9E7003600207436002008B501F031
:1002000007FA0023012801D8014B1B5C181C08BD0C
:10021000A44E020008B5134A11684B7E002B0AD188
:10022000062804D9104B0E211970002007E00F4A50
:10023000800011588F460C4B02201870002008BD1A
:10024000002001F023F90120F9E70420F9E7EC2070
:10025000F7E7F420F5E7F820F3E7F020F1E7FC20DA
:10026000EFE7C0460036002074360020884E0200BA
:1002700008B501F013F9031C0520F02B0AD00AD9A8
:100280000320F82B06D00220FC2B03D00420F42BF3
:1002900000D0012008BD0020042BFBD00620EC2B51
:1002A000F8D00120F6E7C04608B5074A11684B7E32
:1002B000002B04D0054B02201870002008BD01F06F
:1002C00091F80120FAE7C04600360020743600207D
:1002D00008B501F08DF808BD08B5074A11684B7ED6
:1002E000002B04D0054B02201870002008BD01F03F
:1002F00047F80120FAE7C046003600207436002097
:1003000008B501F043F808BD08B5074A11684B7EEF
:10031000002B04D0054B02201870002008BD01F00E
:100320008BF80120FAE7C046003600207436002022
:1003300008B501F099F808BD08B5074A11684B7E69
:10034000002B04D0054B02201870002008BD01F0DE
:1003500055F80120FAE7C046003600207436002028
:1003600008B501F063F808BD08B5074A11684B7E6F
:10037000002B04D0054B02201870002008BD01F0AE
:1003800079F80120FAE7C0460036002074360020D4
:1003900008B501F075F808BD08B50D4A11684B7E27
:1003A000002B0ED10023002804D1181C01F04CF9B9
:1003B000012008BD012809D0064A0E211170002035
:1003C000F7E7044B022018700020F2E70123ECE766
:1003D000003600207436002008B501F03BF90138E2
:1003E0004342584108BDC04608B50D4A11684B7ECE
:1003F000002B0ED10023002804D1181C01F03CF979
:10040000012008BD012809D0064A0E2111700020E4
:10041000F7E7044B022018700020F2E70123ECE715
:10042000003600207436002008B501F02BF90138A1
:100430004342584108BDC046014B18787047C0463A
:1004400074360020014B00221A7070477436002069
:10045000014B58687047C04600360020014B00220F
:100460005A607047003600200249034B0F220A7081
:1004700058607047743600200036002070B5274B56
:10048000274A0024D45086B001F0E8FD254D264EC1
:100490002C606C602C61AC60EC603378012B2BD04D
:1004A000022B0ED001F0DAFD20482C61047002F01E
:1004B00045FE032829D03178022902D07468002C27
:1004C00015D01B4B1B4ADD68156070780021307019
:1004D000042403A800260470416001814181467014
:1004E0008670C67002F04AF8012006B070BD104B4D
:1004F000104A9D681560E8E702F020FE0028DAD077
:100500000021002002F082F9D5E70021002200231B
:1005100000200094019402F08FFBCCE7140500004A
:1005200000F001409436002078360020AC360020E0
:10053000B036002010360020F0B5474680B4464B58
:100540008021C8001A5884B0012A1CD0434C0026D0
:100550001B59002B17D0424C606900281ED002F0B6
:10056000EDFD012802D03F4802F042FF3E4DEB680E
:10057000197D002930D101F071FD002E15D104B094
:1005800004BC9046F0BD394A354C566860693778EE
:1005900020250026BD4276410028E0D103F0C2FBB1
:1005A0000028DCD101256561D9E70120012102F095
:1005B0002DF9042814D903F03DF82D4A2061536920
:1005C00063602478022C0FD0002B0DD197682F6028
:1005D000002003F035F8D2E7264802F009FFCAE709
:1005E000254E8200B758BF46D2682A60F0E72348FC
:1005F00002F0FEFEDFE702F063FA061CE089A7893D
:10060000804602F057FAEB680022997D01AB1F810A
:100610004746029658701A705F819970DA70181CFC
:1006200001F0ACFFC7E702F04BFA061CE089A7898E
:10063000804602F03FFAEB6800219A7D01AB197009
:100640009A7041460122029658701F815981DA70D2
:10065000181C01F093FFAEE70010004034050000C5
:100660007836002057060900103600209436002006
:10067000B036002058060900A84E0200770609008F
:1006800038B51C4800248481C48102F013FA1A4C46
:100690001A4A0125A05002F00DFAA621CB00854090
:1006A000E55002F00DFA164D286002F00FFA68606E
:1006B0001448E86002F09CFFA121CB00E05002F05A
:1006C0003DFD012807D002F039FD022802D00E4876
:1006D00002F08EFE002001F0D3FB03F0BBFB0B4CBD
:1006E0000B4BE268A225E90058500A4D5168595158
:1006F00038BDC04678360020001000402C050000B0
:100700009436002039050200DE050900103600206D
:1007100000F00140140500007047C046F8B55F4680
:1007200056464D464446F0B4061C012585F3108814
:10073000C54A0023032100270125117093705360DF
:1007400093609381D3811361536155701776577607
:10075000BE4CBF4AA1201351C4001151BD48BE4C2C
:100760000360A360636043608360C36003610775D7
:1007700001F036FDE06003F06DFA301C01F0E4FE9C
:1007800001F080FF002002F0FBFD201C02F034FE8F
:10079000B24EC22081007258B14BC0271340735033
:1007A000BA00B058AF49C5230140B1509A00B158C2
:1007B000FF27B94340200143B15085F31088A24D73
:1007C0002B78012B00D115E16E7E01276F70002E72
:1007D00000D007E1FFF752FE2B78A34E9C46002382
:1007E00083F31088A14BA321CF00D859A0498022C0
:1007F0000140D0020143D9519E4A9F4FFF213161F0
:10080000A4209F509D4FC2009F509D4A98588843F6
:1008100098509F588020384398509858914F3840AE
:100820009850BA4680209F58C00107439F509F5858
:100830008B4807409F5083469858C027814638040C
:100840004F463843985098580002070A9F509858CE
:1008500080278146B8054F4638439850A522D200DC
:100860009F58381C884398509858A02101439950AC
:100870009F585046384098509F58C021C80138436F
:10088000985099585846084098509858E02739048D
:10089000014399509F583802010A9950802798586F
:1008A00079050143962099500A2781000223624668
:1008B00077617160F360022A03D06F68002F00D166
:1008C0008DE00F22B260022323606E4F674C6E48AA
:1008D00000227283E2512358FF27BB432350215843
:1008E00002220A432250694B6948A721E050694817
:1008F000CA00A223A050D900674A684B012060506B
:1009000013606749674B684A0B606849684B116020
:100910006849694A1960694B002113603076707626
:100920003177002002F01EFD69233360474B644895
:10093000E6580F223040E050E658062196430E4319
:10094000E650E0585F4EC022910206400E43A320BD
:10095000E650C00022585C4B80211340235026589B
:100960004A043243225023583E4EBB4320273B4388
:10097000235021580E4026506C78012C02D0534849
:1009800002F036FD01242C7000260024AC706C604F
:10099000AC60AC81EC812C616C612E766E7603F0DC
:1009A00055FA344D2A4B4A495851A3224948D70099
:1009B0000326D951C0251E508022284E8021680070
:1009C000D70002234D0337503350355084F310883D
:1009D0001D483CBC90469946A246AB46F8BD0F2345
:1009E000B36071E703F098F9012807D029781E4E0B
:1009F0008C46F4E60126B4461B4EF0E602F0E2FC1B
:100A000000281DD134486421002203F091F9164ECC
:100A1000307F00280FD131490127802380220F60C9
:100A20005200D90588500F60C046C046C046C04637
:100A300088580028FCD003F047F92F78BC46CEE652
:100A4000274802F0D5FCDDE77836002014050000C9
:100A500000F00140943600201036002000E100E054
:100A6000FFFF00FFFF00FFFFB03600200010004036
:100A7000FFFFF8FF1C050000B050E02070D010A070
:100A8000240500000C050000340500003C050000B2
:100A9000FFFF0000211001002417004000500078E3
:100AA000281700404E0000542C17004002800C60B4
:100AB000301700401164660034170040DEC08F829A
:100AC000FFFEFFFFFFFFF0FFFFFFFFFDDA01090060
:100AD0000411004004050000D13302001405004059
:100AE000EC05090038B5264C637E002B13D1254D4B
:100AF000A86800283CD06968002911D002F056FC93
:100B0000002809D1002002F043FC0122627603F0A4
:100B100003F901280CD038BD1B4802F069FCF1E74D
:100B20001A4802F065FC02F041FC0028EAD0F3E725
:100B300002F048FC00281FD115486421002203F070
:100B4000F7F8144C237F002B0FD1134A0125802086
:100B500080211560C90542008B500D60C046C0461B
:100B6000C046C0468B58002BFCD003F0ADF8D2E74E
:100B70000A4802F03DFCBEE7094802F039FCDBE719
:100B80007836002010360020080209000102090012
:100B9000D1330200B03600201405004000020900E5
:100BA000EC05090008B5012383F310881A4B5A7E1F
:100BB000002A02D09878002803D0002080F3108803
:100BC00008BD0121997003F0A7F80128F5D102F0C2
:100BD000F9FB00281BD100221048642103F0A8F87B
:100BE0000F4A137F002B0FD10E4A01201060802185
:100BF0008022C90552008B500860C046C046C046DE
:100C0000C0468B58002BFCD003F05EF8D5E70648B1
:100C100002F0EEFBDFE7C04678360020D133020059
:100C2000B036002014050040EC05090002480123FD
:100C3000407E58407047C0467836002008B50123F2
:100C400083F310881A4B1A78824205D05870587E68
:100C5000002805D1FFF712FC002080F3108808BDA2
:100C600003F05AF80128F7D102F0ACFB00281BD1A1
:100C700064211048002203F05BF80F490B7F002B22
:100C80000FD10E4A0120106080218022C905520038
:100C90008B500860C046C046C046C0468B58002BEB
:100CA000FCD003F011F8D7E7054802F0A1FBDFE71D
:100CB00078360020D1330200B03600201405004001
:100CC000EC050900014B18787047C04678360020C3
:100CD00008B5012080F3108802F038FB002383F36D
:100CE000108808BD08B5012181F3108802F032FB9D
:100CF000002383F3108808BD08B5012383F310880F
:100D000002F022FA00280BD01B4B9A78002A02D15D
:100D1000587E002808D1002080F31088012008BDEB
:100D200080F310880020FAE702F0F6FF0128F2D1E4
:100D300002F048FB00281BD164211048002202F079
:100D4000F7FF0F490B7F002B0FD10E4A01201060D7
:100D500080218022C90552008B500860C046C046E1
:100D6000C046C0468B58002BFCD002F0ADFFD2E746
:100D7000054802F03DFBDFE778360020D133020062
:100D8000B036002014050040EC05090008B501212B
:100D900081F3108802F0C8FA002383F3108808BD9D
:100DA00008B502F0BBFA08BD08B5012181F310882F
:100DB00002F09CFA002383F3108808BD08B502F006
:100DC000A9FA08BD08B502F0BBFA08BD08B502F0E3
:100DD000C5FA08BD10B5041C012383F31088094B24
:100DE0001A78002A02D0587E002806D1201C02F072
:100DF00081FA002181F3108810BD034802F0F8FA4F
:100E0000F4E7C046783600209E02090008B50121AB
:100E100081F3108802F08EFA002383F3108808BD56
:100E2000F0B5C2B20123551097101F401D40D610D7
:100E300079011E40AD01D41137010D435611111136
:100E400019401E4025433D43CC00B7009111060ACE
:100E5000F6B2194025433D434C007710B1101F40B6
:100E6000194025431A40BC014901F710AC461F4008
:100E7000D5012143F2113C01114332111A402143A3
:100E80007411D7001C40A2003943B7111F40114311
:100E9000020CD2B27C001E4021435710F401961080
:100EA0001F401E407601BF013743D6113743D6108D
:100EB0001E403601374316111E40F60037435611C7
:100EC0001E40B600374396111E401A407600374345
:100ED000D601624615433A1C324321432D061602C1
:100EE0000F042E433E43070E7910BD1019401D40DC
:100EF0008A01F8106D01FC111840154339110201E7
:100F0000194025437811CC0018401543B9118200CF
:100F10001940254315434C001F402543F8012B1C65
:100F20000343024A024933438B50F0BD1C050000C5
:100F30000010004070B5414B414AD2580123D6B24F
:100F40007510B0101D401840AC014001F510F111B2
:100F50001D40204308432C013111194020437411D6
:100F6000CD001C40A1002843B5111D400843110AC3
:100F7000C9B26C0020434D108C101D401C40640110
:100F8000AD012543CC112543CC101C402401254341
:100F90000C111C40E40025434C111C40A4002543C7
:100FA0008C111E401C401940F6016400254330435B
:100FB000CC01160CF6B225432904B41075101D405F
:100FC0001C40000608436401A9010C43F110F5110F
:100FD00019402C430D01311119402C43CD007111E2
:100FE00019402C438D00B11119401E402C434D0077
:100FF000120EF1012C430C435510011C90101D40A2
:10100000184026024001AC0131432043D611D510CF
:101010001D40304316112C011E40F5002043541191
:101020001C4028439511A6001D4030436C0013401E
:101030002043DB011843084370BDC0461C05000077
:1010400000100040F0B5C2B20123551097101F40A8
:101050001D40D61079011E40AD01D41137010D435A
:101060005611111119401E4025433D43CC00B700D5
:101070009111060AF6B2194025433D434C00771002
:10108000B1101F40194025431A40BC014901F71017
:10109000AC461F40D5012143F2113C0111433211EE
:1010A0001A4021437411D7001C40A2003943B711E4
:1010B0001F401143020CD2B27C001E402143571046
:1010C000F40196101F401E407601BF013743D61130
:1010D0003743D6101E403601374316111E40F60026
:1010E000374356111E40B600374396111E401A4032
:1010F00076003743D601624615433A1C32432143FA
:101100002D0616020F042E433E43070E7810BD1025
:1011100018401D408201FC106D01F9111C4015435F
:101120003A1120011A400D437C11D1001C400543A7
:10113000BA11A0001A400D43054351000D431F4052
:10114000FC012B1C2343A42002493343C2008B50D3
:10115000F0BDC0460010004070B5A426404AF30020
:10116000D2580123D6B27510B0101D401840AC0102
:101170004001F510F1111D40204308432C013111AD
:10118000194020437411CD001C40A1002843B51123
:101190001D400843110AC9B26C0020434D108C1049
:1011A0001D401C406401AD012543CC112543CC10EA
:1011B0001C40240125430C111C40E40025434C1124
:1011C0001C40A40025438C111E401C401940F60110
:1011D000640025433043CC01160CF6B225432904A4
:1011E000B41075101D401C40000608436401A9019D
:1011F0000C43F110F51119402C430D013111194028
:101200002C43CD00711119402C438D00B1111940B0
:101210001E402C434D00120EF1012C430C4355107F
:10122000011C90101D40184026024001AC013143C2
:101230002043D611D5101D40304316112C011E40FD
:10124000F500204354111C4028439511A6001D4071
:1012500030436C0013402043DB011843084370BD4A
:1012600000100040F0B503220240D200FF2393405B
:10127000DB43184C032829D8174825584E102B401B
:10128000235001231F1C0F401E40B601FF013743AE
:101290008E101E4076013743CE101E403601374374
:1012A0000E111E40F60037434E111E40B600374364
:1012B0008E1133405E003B1C33431F1CCE1137435D
:1012C00025589740391C29432150F0BDA520C00066
:1012D000D3E7C046001000402405000000B50322FB
:1012E0000240D200FF239340032824D81449154814
:1012F00041580B40D340DBB20122101C591018405A
:1013000011408901C0010843991011404901084367
:10131000D91011400901084319111140C9000843AF
:10132000591111408900084399110A405200104395
:10133000DB11184300BDA5210248C9004158D8E778
:10134000240500000010004038B5051C0C1E08D014
:10135000002D0BD0074B00209D605C6002F05AF915
:1013600038BD054802F044F8002DF3D1034802F0DF
:101370003FF8EFE710360020EE020900EF02090007
:10138000014B58617047C046B0360020014B586988
:101390007047C046B036002010B5054AA323DB00D5
:1013A000D4580104034820400843D05010BDC04623
:1013B00000100040FFFFF8FFA320034AC300D158EC
:1013C0004803400F7047C04600100040014B1861B1
:1013D0007047C046B0360020014B18697047C046C0
:1013E000B0360020014B58607047C046B036002030
:1013F000014B58687047C046B036002000B5084A17
:10140000084BD0601978022906D05B68002B03D105
:1014100090680549086000BD034A1060FBE7C046BC
:10142000B03600207836002010360020014BD868F6
:101430007047C046B036002000B5084A084B90609F
:101440001978022905D05B68002B02D10549086094
:1014500000BDD26803480260FAE7C046B0360020FB
:101460007836002010360020014B98687047C0463F
:10147000B0360020014B58837047C046B03600207C
:10148000014B588B7047C046B0360020014B024AD2
:10149000D05070470C05000000100040024B034A7A
:1014A000D058C0B27047C0460C0500000010004084
:1014B00010B51A4B1A4AFF219C588C439C500128A6
:1014C00017D0002802D19958995010BD02281AD07F
:1014D000032803D0134801F08BFFF6E79958124C0C
:1014E000084398501148A7211C50CA00002098506A
:1014F000EBE79C58204398500C48A72419500C48FF
:10150000E2009850E1E79C5808492043094C985064
:101510005C50A7200849C2009950D6E7001000404F
:101520003405000064030900FFFFFF003C050000D4
:1015300007010000FFFF000021100100024B034AD9
:10154000D058C0B27047C0463405000000100040BB
:1015500000B5012818D0002813D1A2231C49DA00B5
:1015600088501C4B1C4A1D481A601D491D4A1E4BC1
:1015700008601A601D4A1E4B1E481F491A60086009
:1015800001E0022814D000BDA221114ACB00D050A6
:1015900010491148114A0860114B184812491A6045
:1015A0000860174A124B174813491A600860EAE7A7
:1015B000A2220749D300C850064A074807491060CD
:1015C000074B094A104819601060104AD3E7C0461B
:1015D0000010004024170040005000784E000054D6
:1015E0002817004003800C602C1700402264720012
:1015F000301700403E420F823417004002800C60DA
:1016000011646600DEC08F8208800C6088647200FE
:10161000A221024ACB00D058C0B27047001000404F
:1016200010B5041C0548C368002B02D004490C7592
:1016300010BD044801F0DCFEF8E7C046103600207B
:101640009436002097030900014B18767047C04676
:10165000B0360020014B187E7047C046B0360020DF
:10166000014B58767047C046B0360020014B587E7B
:101670007047C046B0360020014B18777047C0460F
:10168000B0360020014B187F7047C046B0360020AE
:1016900008B501F067FE08BD38B51349C868437D39
:1016A000002B19D1114C124D124A134800215151EF
:1016B00028C80020ED1A01F06BFE61698D4203D845
:1016C0000E4801F095FE6169691A0D48012202F089
:1016D0002FFB0023636138BD012000F059FC034C4F
:1016E000A2890132A281DEE7103600207836002080
:1016F0001405000000F00140B03600200906090082
:10170000D133020038B500F0A9FC1F4C002525613B
:101710001E491F4D01222A700969A6201D4AC300D7
:10172000D15001F00BFD002822D100F05DFF01280F
:1017300004D901F0D1F96060002821D0022000F026
:101740009FFB002000F024FC01F0F8FC032802D0ED
:10175000114801F04DFE2B78012B02D00F4801F00B
:1017600047FE0F48022200212A702161E06038BD47
:1017700001F0E4FC0328E1D00A4801F039FEDDE77E
:10178000094801F035FED9E794360020B036002034
:10179000AC36002000100040300509003C0509006F
:1017A000C1170200280509002305090008B5034BED
:1017B00005221A70FFF7A6FF08BDC046AC36002010
:1017C00070B5544C86B060684378DA074ED5002374
:1017D00023608026504BF100504D5A58032028704A
:1017E000012A03D04E495A58002A2BD163681E782B
:1017F000202E27D848498123DE008E59494A05A862
:101800008A5801230090311C0120019401F014FA40
:10181000012836D0002830D002284FD0032802D02B
:10182000414801F0E5FD3C4B8121C8001E583F4A6C
:101830009E502368002B5CD03D4E266104242C7002
:1018400006B070BD8120344AC300D3580026002062
:101850000021002200230096019601F0EDF9667543
:101860000428E0D0334801F0C3FDDCE701F080FD3F
:101870000028ACD000F0F2FBA9E72F4801F0B8FD3A
:10188000D1E70598002802D02C4801F0B1FD301CAA
:1018900001F056FD002835D029490223C8680021EF
:1018A000827D02A88270037041600181418146708F
:1018B000C17000F063FE01226275B4E7059A002A48
:1018C00024D0301C01F03CFD002817D01C49022315
:1018D000C868059A817D02A803704670002301261E
:1018E0004260038143818170C67000F047FE6675D7
:1018F00099E723616375FFF705FFA1E7114801F040
:1019000077FDE3E7104801F073FDC5E70F4801F0EC
:101910006FFDD6E79436002000100040AC36002062
:10192000340500000C040000810509002C050000AE
:10193000AD1702008A050900750509006F05090049
:1019400010360020790509007005090078050900A6
:10195000F0B54F464646C0B4B54C85B06369002B20
:1019600031D06368002B01D0013B63602278B14D18
:10197000022A5CD0002B5AD1AF68AF4E3760A178F5
:10198000002900D0ADE0022A00D0B9E0AB4F3A7890
:10199000033A012A00D843E101F040FDA84AA12101
:1019A000C8008146131C4B441E68904601F020FE7F
:1019B000864200D12FE101F01BFE47464F443860BC
:1019C000FFF7A0FE9EE002F0ADF90028C9D1237810
:1019D000012B4FD0022B37D001F020FD626800238D
:1019E000002A01D0531E63602078934E8046914FA9
:1019F000022801D0002B3AD0FB683360A278002A7D
:101A000019D16178414506D0FEF738FD002800D095
:101A100087E02578A8464246012A00D1B3E0002A93
:101A20003BD0022A29D0874801F0E2FC44E0EE686E
:101A300081480660A3E7617E002900D07DE005B003
:101A40000CBC90469946F0BD7C4E01223578033D92
:101A5000E9B28A424041C0B20028BDD0754B5968F6
:101A6000490861617848012202F062F9E7E7B86845
:101A70003060C3E700F0E8FAEEE7714EA121C8003C
:101A80003558804601F0B4FD854200D1CAE001F02E
:101A9000AFFD4346F050FFF735FE00207D6801F0B2
:101AA00077FC61698D4200D8B0E0691A664801226E
:101AB000002502F03DF965617D7E012DBFD12678BC
:101AC000022EBCD060680028B9D1012E00D1F7E009
:101AD000002E00D1E1E0022EB1D05C4801F088FC7C
:101AE000ADE701F09BFC637E002BA8D002F014F957
:101AF000012834D002F0F4F8287F00282AD125E00C
:101B000001F08CFC00206D6801F042FC61698D429F
:101B10000ED9691A4C480122002502F009F96561C5
:101B20008DE700207D6801F033FC61698D42F0D8BB
:101B3000474801F05DFC6169EBE702F0EDF8012830
:101B40000DD002F0CDF83F7F002F03D18027012177
:101B5000FA0551600020002601F01AFC666000F0D2
:101B60007DFA0023A370637601A80024052101708B
:101B700043600381438144708470C47000F0FEFCB4
:101B80002E4D2C705BE700F069FA01F0D7FA0028BF
:101B900066D07B8B002B03D0A189994200D3ABE0A8
:101BA00002F0C0F8002800D0A2E0A1222448D3000F
:101BB000C55801F01DFD854202D0E1890131E18166
:101BC00001F016FD1E4DA122D300E85001F0B6FA37
:101BD000012807D001F0B2FA022802D01D4801F016
:101BE00007FC002000F04CF902F034F91A49F568BE
:101BF000A222D300C8506E6818480E5001203D68DC
:101C000001F0C6FB61698D4200D94EE7104801F032
:101C1000EFFB616949E73E78002E00D1D0E671E71D
:101C200069681DE7054A1678002E00D133E734E7CE
:101C300078360020B036002010360020AC36002068
:101C400000100040FC030900D13302001604090013
:101C500009060900DE05090000F001401405000036
:101C600000F0C2FC0128C9D92678022E02D0606893
:101C700000285BD001F0F4FC0028BFD13B7E002B94
:101C800004D101F0D7FC22699042B7D100F05AFD8F
:101C90000028B3D0FEF7F4FCB0E702F03DF80128CD
:101CA00000D1CCE602F01CF83E7F002E02D180204D
:101CB000C20555600020002501F06AFB6560BEE6A4
:101CC00001F03CFA002800D0B9E600F035FD00280C
:101CD00000D0B4E602F020F8012800D1AFE601F010
:101CE000FFFF3F7F002FE5D18023D9054E60E1E75C
:101CF000144801F07DFB58E70121002000F086FD2B
:101D000000F0DEFEE5898146A68900F0D3FE01AB36
:101D100041465D8100254A46587019701E819D70AC
:101D2000DD70181C029200F029FC67E7206901F0C1
:101D300071FC002001F084FC00F004FD002800D1BB
:101D40005CE7A7E7B304090010B5074C2378012B23
:101D500002D0064801F04CFB0548064A0223002148
:101D600023700161C26010BDAC3600203C05090043
:101D700094360020C117020038B5374980228B699C
:101D8000950001338B61354B032404200870C02279
:101D90005C51334C02255200A550862500226C0070
:101DA00080251A516C0088251A516C0082251A5121
:101DB0006C00C1251A51AA0008249C50294C2568A2
:101DC0002A7D002A18D0A925EA009D58A023264A7A
:101DD0008D75DD005159084239D0204B8E204500C9
:101DE00000220121A1205A519961C1001E480425F9
:101DF0004550A921C8001A50802518496B00CA58BF
:101E0000002A20D18621154A4B00D058002816D12F
:101E10008022134B50001D58AA0702D5134801F029
:101E2000E7FA2368DA68002A01D0904723685C7DCE
:101E3000002C03D019680E48084D295038BD0D48B4
:101E400001F0D6FAE4E70C4801F0D2FADAE70B48E1
:101E500001F0CEFAC1E7C046D036002000100040A5
:101E600000E100E02036002000F00140B7020A0047
:101E700004050000B6020A00B5020A00AC020A001E
:101E8000F0B557464E464546E0B4354C354E237DB9
:101E9000051C00013618002B59D1022D41D93248BA
:101EA00001F0A6FA314801F0A3FAC2203049012717
:101EB000002283007F42C0206275CF5043002D482E
:101EC0000227C7502C4F65703B6818688446A06095
:101ED00058682261A26132688246E0606260022D29
:101EE00013D8327A80209046820040468850F27A99
:101EF000002A1AD1214A60468850895800292AD0E0
:101F0000767AC1221A4F91007E501B7D002B01D0A2
:101F1000022D15D0012161751CBC90469946A24640
:101F2000F0BD21780029C0D0BCE7144A5046885043
:101F300089580029E4D1124801F05AFA3B68DFE7DA
:101F40000E4E104800270425A7758551E2E70E487C
:101F500001F04EFAA1E70D4801F04AFA3B68CFE7DD
:101F6000D0360020BC4E0200F8020A00DD000A0054
:101F70000010004000E100E02036002004050000D1
:101F800005010A0000F00140DB000A0000010A0020
:101F900070B5224C061C637D6578002B36D0207D01
:101FA00000282FD10123002223756275022D25D828
:101FB0001B4928010A18002E0AD06B1E012B0CD9D0
:101FC00018490868047D002C01D0022D08D070BD8E
:101FD000166833606B1E012BF2D8927A2270EFE7FD
:101FE000114E124B9D596A0714D50F4C10480259D7
:101FF000002AECD10F4801F0FBF9E8E70E4801F0A8
:10200000F7F9DDE70D4801F0F3F9CBE70C4801F0F3
:10201000EFF9C4E70B4801F0EBF9E6E7D036002012
:10202000BC4E0200203600200405000000F00140F4
:102030000010004041010A003A010A0022010A0092
:1020400021010A0040010A008220034A4300D058BF
:1020500001384342584170470010004070B55D4A56
:1020600002218023D15001245B4BC22066428500AF
:10207000C0245E516000802688241150B5000020E5
:10208000610058510122585054491A610B78012BB4
:1020900045D0023BC046C046C046C046C046C046CA
:1020A000C046C046C046C046C046C046C046C04600
:1020B000C046012B23D9484A882380265D00B400FE
:1020C00000230120C22653510B7013514442B0002B
:1020D0001450C0263F48022476008451862676009C
:1020E000935103264E7080267600935182265351D9
:1020F000750053514B600B754B75046070BDC04645
:10210000C046C046C046C046C046C046C046C0469F
:10211000C046C046C046C046C046C046CBE7C046E3
:10212000C046C046C046C046C046C046C046C0467F
:10213000C046C046C046C046C046C046C046C0466F
:10214000C046C046C046C046C046C046C046C0465F
:10215000C046C046C046C046C046C046C046C0464F
:10216000C046C046C046C046C046C046C046C0463F
:10217000C046C046C046C046C046C046C046C0462F
:10218000C046C046C046C046C046C046C046C0461F
:10219000C046C046C046C046C046C046C046C0460F
:1021A000C046C046C046C046C046C046C046C046FF
:1021B000C046C046C046C046C046C046C046C046EF
:1021C000C046C046C046C046C046C046C046C046DF
:1021D000C04670E700E100E000100040D03600206B
:1021E00038B50E4C022520600D4C8023E5500D497A
:1021F0000D4B0E48A42219500D49D0001950FFF77D
:102200002DFF0C48002303220370427043600361DA
:10221000037543758375256038BDC04620360020A0
:1022200000E100E01410004000F00140240500002F
:1022300004110040D0360020F0B5474680B4AB4CC6
:102240002069637D013065782061002B4ED12678AE
:10225000032E51D0032D00D188E0012D00D189E05B
:10226000022D00D1AFE06078A14D0601AB191F7BB4
:102270000025002F05D086279E497A008D586A1EBA
:1022800095419E7A80229B4B002190002670195028
:10229000032E61D00120C2264742B2009F50C020C9
:1022A000954F022642008620BE50460099510323D6
:1022B0006370904A80260023770088218226D351BC
:1022C000480077001350D351636023758B4C21680D
:1022D0000B69002B00D09847002D04D023689B6821
:1022E000002B00D0984704BC9046F0BD844801F014
:1022F0007FF82678032EADD17E4F86235A00B95839
:1023000090460029A6D0012D00D1ACE0022D00D0CE
:10231000A5E02369012B7DD07A4801F069F8236993
:10232000012B77D0022B00D095E0882000234500B8
:102330004146802282207B507B5151004500802203
:102340007B5001207B519100C2257B50AA00414265
:102350002370B950667054E00927C221C126784223
:102360008A00B70008219850D951A2E7664801F0C9
:102370003FF8B8E72369012B4FD0022BB3D15D4E54
:102380008622002357008821F351480080258027AA
:1023900033506A00B9000220C225B350474273503F
:1023A000AA00C121B75008250322880035502270A9
:1023B00063602375514C23681A69002A00D18EE7A7
:1023C000904723688BE72369012B23D0022B42D14E
:1023D000484F8622882000235100450080267B50EC
:1023E00072007B5182218025BB504800AE00012243
:1023F000C2213B505542BB518800032623703D50FB
:102400006670636023753D4B1C682369002B00D008
:1024100068E768E7FFF7B0FC65E7364880220026EA
:102420005300C6508227C223790001229F00334BFC
:1024300046505642C121C6518A001F6885503E7DD4
:10244000002E03D03149324804254550E4682F4F0F
:10245000284EF45147E72F4800F0CAFF43E72E48C3
:1024600000F0C6FF3FE72569032D02D02B4800F09E
:10247000BFFFA26980270132A2611E4A0023022108
:10248000BE000125C22021706F429351C0258600F5
:10249000194897516F008626C151750088275351FE
:1024A0007E0080218225154F48006900135093510A
:1024B0000320535039686070636023750E7D002ED1
:1024C0000ED0A920C00017588E267500A77553514D
:1024D0000124A1270E4D94610426FC002E511350B7
:1024E000CB68002B00D0FDE6FDE6C046D0360020CC
:1024F000BC4E02000010004000E100E02036002049
:102500008E010A00A2010A00D4010A00040500009D
:1025100000F00140E6020A00A7010A009D010A003E
:1025200008B5022804D9054800F062FF002008BD64
:10253000034B187843425841F9E7C046F8020A00B5
:10254000D03600207047C04610B5041E0CD0084A93
:10255000802314600024D4678421D4508020054B4C
:10256000545042031A6010BD034800F041FFEEE7EB
:10257000F436002000E100E029000B0070B5164C95
:10258000051C2368002B22D08421605809281AD802
:10259000E66F7300991988002218043243CD43C2B4
:1025A0008423E6580136E650E56F0135E567E26FB2
:1025B000092A01D90025E56780268021074A74038E
:1025C0004800145070BD064800F012FFE0E70548CF
:1025D00000F00EFFD8E7C046F436002000E100E02E
:1025E00035000B0034000B00034A842013580A21E5
:1025F000C81AC0B27047C046F4360020F0B557463E
:102600004E464546E0B484B0012383F310881C4B4A
:1026100084201A58002A29D08426002101AC802564
:10262000B14688465A59261C510088188700DA1985
:10263000043283CA83C649465858013858505A59FB
:1026400001325A515F59092F01D946465E5188F32C
:1026500010881E6820686168A268B047012383F370
:102660001088074B48461F58002FDBD1002484F305
:10267000108804B01CBC90469946A246F0BDC046E6
:10268000F436002008B500F0F1FF264A0023802030
:1026900013548120135489201354822013548A2008
:1026A0001354832013548B201354842013548C20F0
:1026B000135488218520135453548D201A491354E0
:1026C00086200B704B708B70CB700B714B719361CC
:1026D0009363D361D363136213645362536493624D
:1026E0009364D362D3641363136513548E2013541D
:1026F000872013548F20135490208B71CB71135467
:102700009121582053545363536513705360936061
:10271000D3601361536101211354D3679223D154C1
:1027200008BDC0467C37002010380020014B185CE3
:102730007047C04610380020014A9023D05C704793
:102740007C37002010B52D4C2378002B3DD19021F3
:10275000605C00281CD122780020002A17D0A068D5
:1027600000283AD02169616006318A00A118CB782F
:1027700003220133DBB2CB7013405A0043780621A9
:102780008B431343437000209023E054012010BD7D
:102790002069606001F066F9A060002822D04378CB
:1027A0000122134003D19222A15C002911D160685B
:1027B000083001F073F90228CDD8E36F002B16D052
:1027C000E36001232370A068CAE70D4800F010FE03
:1027D000BDE70221E3602170C2E70A4800F008FE6D
:1027E000A068BFE7084800F003FEA068D7E700F044
:1027F000A5FFE067E0600028ADD0E2E77C3700206D
:1028000001010C0025010C0007010C00F8B5A14CDA
:10281000061C23780F1C013B012B02D99E4800F0B7
:10282000E7FD0425002E00D0A5E0002F00D08EE0AB
:10283000002222709026A05D002877D1606901F007
:102840002DF9002800D073E06069A35D013060615C
:10285000082800D177E0002B68D101F01FF900288B
:1028600000D0A4E0606990260130A35D6061082873
:1028700000D1A8E0002B59D101F010F9002800D0B8
:10288000A5E0606990230130E35C6061082800D115
:10289000A9E0002B4AD101F001F9002800D0A6E000
:1028A000606990210130635C6061082800D1AAE072
:1028B000002B3BD101F0F2F8002800D0A7E06069BE
:1028C00090270130E35D6061082800D1ABE0002B68
:1028D0002CD101F0E3F8002800D0A8E06069902234
:1028E0000130A35C6061082800D1ACE0002B1DD151
:1028F00001F0D4F8002800D0A9E0606990230130ED
:10290000E35C6061082800D1ADE0002B0ED101F03E
:10291000C5F8002804D0606901229023E2542061A8
:10292000676901376761082F00D1A0E0281CF8BD56
:102930006069676901230130A35527610123606144
:10294000082800D087E700216161002083E76668DE
:10295000301C01F05DF8002805D0A1194F4F00236D
:1029600080310B70BB55A668864200D160E74C48A9
:1029700000F03EFD5CE72078012802D0494800F0D5
:1029800037FDE368002B7AD019780025002900D1A3
:102990004BE7E06F6568002876D0291C083100F00D
:1029A000B1FF002866D00022E26702253DE760699A
:1029B00001222061606990270130E25501236061A6
:1029C000082800D056E700216161002052E701206D
:1029D0009022A0546069666901302661012360611C
:1029E000082800D055E700276761002051E79020B4
:1029F0000126265460696369013023616061012307
:102A0000082800D054E700226261002050E7606986
:102A10006169902301260130E65421610123606140
:102A2000082800D053E70020606100204FE760696C
:102A30006769012190260130A1552761012360615A
:102A4000082800D052E70020606100204EE760694E
:102A5000626901279021013067542261012360617E
:102A6000082800D051E70026666100204DE70021CC
:102A700061615BE70C4800F0BBFC0225D5E60B4822
:102A800000F0B6FCE3687FE7094800F0B1FCE06FB6
:102A900083E7C0467C3700203D010C001038002041
:102AA0005F010C0043010C004F010C0044010C00BD
:102AB000B0020C00014B58687047C0467C370020BC
:102AC000014B98687047C0467C370020014BD8689E
:102AD0007047C0467C370020F8B54F464646C0B424
:102AE000534C2378002B00D093E0E06F002800D1F6
:102AF00093E0427801230625861C5F42032115439B
:102B00007642B8460770457089460E4000D18AE08B
:102B1000731E9C4665464B460022FF211F272B4013
:102B200012D081700122012B0ED0022B02D042461E
:102B3000C270022283189970013205E0C518A9708D
:102B4000E97085186971043283189970BD1A531C95
:102B5000AC469E42F2D82025AF1BB946BF08BA004A
:102B6000904628D0B21C012671427D1E03262E40BD
:102B70008218012502C2BD4216D2002E0BD0012EB2
:102B800005D0022E01D002C2022502C20135013554
:102B900002C2BD4208D2161C02C6043551607160E3
:102BA000D1601032BD42F6D367464246B91A43445B
:102BB0008C46C14527D06646F618D943C518FF2272
:102BC0008919032701333940AA70B3421BD0002969
:102BD0000ED0012907D0022902D0C1188A70013312
:102BE000C518AA700133C7180133BA70B3420AD0AE
:102BF0005D1C4119C718C5180433BA708A70CA70B1
:102C00006A71B342F4D1032323700CBC90469946F9
:102C1000F8BD084800F0ECFB67E700F08FFDE067C7
:102C20000028F2D065E720218C46002393E7C046B8
:102C30007C3700207C010C00F0B55F4656464D46BF
:102C40004446F0B4C44C83B088469B460D99E36F6C
:102C5000071C92468946002B00D179E12078032891
:102C600002D0BE4800F0C4FBE06F01264378DA07CB
:102C700004D49225665D01225640F6B20425002F49
:102C800000D098E0002600F0C3FDE6670020207029
:102C90009026A15D002977D1606900F0FFFE002831
:102CA00000D079E06069A35D01306061082800D13F
:102CB0007DE0002B68D100F0F1FE002800D0CBE0D1
:102CC000606990260130A35D6061082800D1CFE0E3
:102CD000002B59D100F0E2FE002800D0CCE0606962
:102CE00090270130E35D6061082800D1D0E0002B1F
:102CF0004AD100F0D3FE002800D0CDE060699023D7
:102D00000130E35C6061082800D1D1E0002B3BD1A9
:102D100000F0C4FE002800D0CEE0606990220130AF
:102D2000A35C6061082800D1D2E0002B2CD100F018
:102D3000B5FE002800D0CFE09020235C6069013010
:102D40006061082800D1D3E0002B1DD100F0A6FE61
:102D5000002800D0D0E0606990210130635C6061A0
:102D6000082800D1D4E0002B0ED100F097FE0028F7
:102D700004D06369012190202154236162690132EA
:102D80006261082A00D1D4E0281C03B03CBC904604
:102D90009946A246AB46F0BD6069636901220130E5
:102DA0002361A25501236061082800D081E7002734
:102DB000676100207DE75807850F404652460E3078
:102DC0002B06170241468500083160593F0A0C9ACC
:102DD0001F4301910023494613600B60874200D1D5
:102DE0009AE0E06F002800D1C1E0019900F08AFD6F
:102DF00000239A46002802D0E36701239A46002E5A
:102E000000D01E1C51460325002900D187E0019DFA
:102E10005B460635AA00A7500125002B7FD0504FF6
:102E20004146785C00287AD0404600F037FE002802
:102E300000D1A7E0404600F0EBFD002800D19BE068
:102E4000414665180C9B803500222A7018600022CC
:102E500040463A54022562E001209023E054606924
:102E600061690130216101236061082800D02FE7EA
:102E70000022626100202BE790200121215460692B
:102E800066690130266101236061082800D02EE7C1
:102E90000022626100202AE76069676901269021AB
:102EA00001306654276101236061082800D02DE7B6
:102EB00000206061002029E760696369012790268E
:102EC00001302361A75501236061082800D02CE759
:102ED00000216161002028E7606962699023012771
:102EE0000130E754226101236061082800D02BE7FC
:102EF00000266661002027E7606901222061606981
:102F000090270130E25501236061082800D02AE7AC
:102F100000266661002026E70027BA460325002E1A
:102F20000AD14A4616605746002F00D0AEE6E06F41
:102F3000A8E60027676127E7404600F093FD494671
:102F40000860002810D0064B012041465854EAE79B
:102F5000044800F04DFA81E67C3700209D010C000A
:102F6000103800209C010C00084E0E60DBE708487A
:102F700000F03EFAE06F38E70C9B1860054800F05F
:102F800037FA64E7044800F033FA53E7D4370020F7
:102F9000B0020C00D7010C00D2010C0038B5664C11
:102FA0002378002B75D19025605D002871D1606970
:102FB00000F074FD002800D06CE06069635D0130B2
:102FC0006061082800D170E0002B62D100F066FD3E
:102FD000002800D06DE09023E35C606901306061FF
:102FE000082800D18FE0002B53D100F057FD0028B6
:102FF00066D19023E35C606901306061082800D1EC
:1030000085E0002B45D100F049FD00285FD19023D9
:10301000E35C606901306061082800D17BE0002B2F
:1030200037D100F03BFD002858D19023E35C606964
:1030300001306061082800D171E0002B29D100F037
:103040002DFD002851D19023E35C6069013060615F
:10305000082868D0002B1CD100F020FD00284BD19F
:103060009023E35C60690130606108285FD0002B29
:103070000FD100F013FD002804D0636901209021D6
:1030800060542361626901326261082A01D100251E
:10309000656138BD60696169012201306255216155
:1030A00001236061082800D08EE7002565610020BB
:1030B0008AE7606901219022A154206101238CE7F5
:1030C000606901219022A1542061012393E7606986
:1030D00001219022A154206101239AE76069012116
:1030E0009022A15420610123A1E76069012190226F
:1030F000A15420610123A8E7606901219022A15415
:1031000020610123AEE70025656100206BE7002503
:103110006561002075E70025656100207FE70025D7
:103120006561002089E700256561002092E70025A0
:10313000656100209BE7C0467C370020014B187872
:103140007047C0467C37002070B5051C0E1C00F08F
:10315000B5FC0024002801D1201C70BD301C291CA6
:1031600000F0D0FB0028F7D05F4D01242B78002B16
:10317000F2D19026A85D0028EED1686900F08EFC9F
:10318000002871D1AB5D686901306861082800D101
:103190008DE00124002BDFD100F080FC902300287B
:1031A00067D1EB5C686901306861082800D182E072
:1031B0000124002BD0D100F071FC902300285DD1B8
:1031C000EB5C686901306861082878D00124002B25
:1031D000C2D100F063FC9023002854D1EB5C6869F5
:1031E0000130686108286ED00124002BB4D100F0B2
:1031F00055FC902300284BD1EB5C68690130686175
:10320000082864D00124002BA6D100F047FC9023AD
:10321000002842D1EB5C68690130686108285AD007
:103220000124002B98D100F039FC9023002839D1DB
:10323000EB5C686901306861082850D00124002BDC
:1032400000D089E700F02AFC002803D09026AC5576
:103250006C692C616B69012401336B61082B00D010
:103260007AE70020686177E76969AC552961012335
:1032700089E7EC546C6901232C6193E7EC546B698A
:103280002B6101239DE76969EC5429610123A6E7BD
:10329000EC546C6901232C61AFE7EC546B692B6132
:1032A0000123B8E76969EC5429610123C1E70022D1
:1032B0006A6100206DE700266E61002078E700203B
:1032C0006861002082E700226A6100208CE7002606
:1032D0006E61002096E7002068610020A0E70022D0
:1032E0006A610020AAE7C0467C37002008B500F0DC
:1032F000B9FB08BD08B5054A00231118044A8031FE
:103300000B70135400F0E0FB08BDC0467C37002072
:103310001038002008B500F0C1FB08BD08B5083022
:1033200000F0A0FB08BDC04608B5083000F070FBF7
:1033300008BDC04608B5083000F0C6FB08BDC04651
:1033400008B5083000F0AAFB08BDC04608B500F07B
:10335000F5F908BD08B500F05BFA08BD08B500F046
:10336000ADFB08BD014A9223D05470477C37002042
:10337000014A9223D05C70477C3700207047C046DA
:10338000024B9870587018707047C046183800206B
:1033900010B5041C012802D9024800F029F8024B9C
:1033A0005C7010BD2A000D0018380020014B187801
:1033B0007047C04618380020014B98787047C046C7
:1033C00018380020014B58787047C0461838002044
:1033D00008B5054B18785978987004488A00197018
:1033E0001358984708BDC046183800200021002017
:1033F00008B5FDF739F808BD10B5041E05D0054B1A
:1034000000221C605A609A6010BD0348FFF7F0FF6D
:10341000F5E7C046243600202A00010000B5094B1C
:1034200019689A68086801329A60824208D35A681B
:1034300049680020013298605A608A4200D358607F
:1034400000BDC04624360020F0B5474680B40028B1
:103450001DD001281ED0184FBD683B6844191D6857
:10346000BC60201C291C984600F03CFF7E68861931
:103470007E60AC4203D3641BA542FCD9BC604046CD
:1034800043689E4203D3F61AB342FCD97E6004BC63
:103490009046F0BD084B19689A68086801329A6036
:1034A0008242F4D35C6849680020013498605C6013
:1034B0008C42ECD35860EAE72436002002490A68BF
:1034C0008B681068C01A70472436002038B50E4D3E
:1034D000041C28684368A34211D96B680020A342EA
:1034E00009D02A689C4207D91268A868DB431C19D6
:1034F000151A6243A81838BD51686418F4E70348E8
:10350000FFF776FFE9E7C046243600206800010097
:1035100070B5041C0D1C884214D20C4E3068036830
:103520009D420BD8B368E01A9C4206D800209D4209
:1035300003D835682A68D11A081970BD0448FFF706
:1035400057FFEFE70348FFF753FFE6E72436002075
:103550007E0001007D000100F8B5214C061C2068AA
:103560000F1C4368151C9A4226D263689D420FD0F7
:1035700022680AD91268A168DB435D19501A6A43B0
:103580008018002804D08019F8BD51686D18F1E743
:10359000BE421ED223681A68974214D8A1688E4290
:1035A0000ED88F4219D8511A88198842ECD35C681A
:1035B000013C62438018E7E70A48FFF719FFD4E7A8
:1035C000701A511AF1E70848FFF712FF23681A68CA
:1035D000E4E70648FFF70CFFDCE7511A0020E4E7B8
:1035E00024360020680001007E0001007D000100FB
:1035F00010B5064C2268636851688B4203D30448B7
:10360000FFF7F6FE0CCC9268D05C10BD243600208B
:10361000B200010038B5054C051C20684368AB4278
:1036200002D80348FFF7E4FE656038BD2436002069
:10363000B9000100014B58687047C046243600208D
:1036400038B5054C051C20680368AB4202D8034816
:10365000FFF7CEFEA56038BD24360020C50001006E
:10366000014B98687047C0462436002070B52F4B38
:1036700000222021222623255A7021249A702520F9
:103680001A701A715A71DA70DA711A729A719A7222
:10369000DA725A725A739A731A731A745A74DA7302
:1036A000DA741A759A749A75DA755A755A769A7622
:1036B0001A761A775A77DA76DA775A549A77262171
:1036C0009A555A55242628251A551A5429245A54ED
:1036D00027209A552B215A552C262A251A551A543B
:1036E0002E245A542F209A552D215A55104E114DE3
:1036F0001A551A5400245A54DE21200103195A0085
:10370000B21804C5117051700223581CD1541154C1
:10371000981C1154D81C04331154222BF5D10134B8
:10372000062CEAD1044D2C6070BDC046383800200C
:1037300028390020203800201C38002070B52E4A7F
:103740000024106800283ED0411E2C4B2C4E8D00CA
:103750005C5911605E51002937D01A6894422CD010
:10376000023803250022284013D0012291422CD98F
:103770005E68B44221D001280BD0022803D09D6896
:103780000222AC4219D00132D2B295005E59B44245
:1037900013D00132D2B2914217D99600985984427F
:1037A0000BD00132D2B296009859844205D0013232
:1037B000D2B290001D58AC42E5D11248FFF718FE76
:1037C0001148FFF715FE201C70BD104B9C42FAD02B
:1037D000191C22318C42F6D01A1C44329442F2D089
:1037E0001D1C6635AC42EED0181C88308442EAD0ED
:1037F000AA339C42E4D1E6E71C38002020380020A0
:10380000ADDEADDEF60003007D00030028390020A8
:1038100070B5344E041C3268052A5ED8324D002A39
:1038200044D02B689C422CD0511E03200023014021
:1038300013D001239A4239D96868844221D00129E2
:103840000BD0022903D0A96802238C4219D001337E
:10385000DBB299006858844213D00133DBB29A423C
:1038600024D9980029588C420BD00133DBB299003F
:103870006858844205D00133DBB29900685884420D
:10388000E5D11A48FFF7B4FD1948FFF7B1FD3268DA
:103890009300E8581749884204D01748FFF7A8FD5D
:1038A000326893000132EC50326070BD134B9C4281
:1038B000EED0191C22318C42EAD0181C44308442CC
:1038C000E6D0191C66318C42E2D0181C8830844244
:1038D000DED0AA339C42D7D1DAE70948FFF788FD4A
:1038E00032689BE71C38002020380020F6000300D7
:1038F00086000300ADDEADDE88000300283900201D
:1039000085000300F8B5041C0D1C0F2900D96BE0DD
:10391000374B1968002950D0364B1A6894422CD086
:10392000481E03260022304013D001228A4244D28E
:103930005E68B44221D001280BD0022803D09868D9
:103940000222844219D00132D2B290001E58B442F1
:1039500013D00132D2B28A422FD29700D859844272
:103960000BD00132D2B296009F59BC4205D0013231
:10397000D2B29700D8598442E5D11F48FFF738FDED
:103980001E48FFF735FD1E4B6E0071195F5C00206D
:10399000022F11D85A185778C9191A4F8900CC51DB
:1039A0005178013151705478022C00D9507075193A
:1039B0005A5D012001325A55F8BD134B9C42E2D0AA
:1039C000191C22318C42DED01A1C44329442DAD0C7
:1039D0001E1C6636B442D6D0181C88308442D2D021
:1039E000AA339C42CCD1CEE70848FFF701FD8FE710
:1039F0001C38002020380020F6000300900003004F
:103A00003838002068380020283900208F00030053
:103A100038B5041C0F281AD80F4A65002919535CC1
:103A20000020002B0FD053189878081881000B48FD
:103A300008589978013199709978022904D82C197D
:103A4000155D013D155538BD00219970F7E7044813
:103A5000FFF7CEFCE0E7C046383800206838002089
:103A6000A600030010B5041C0F280DD86000084BF9
:103A70000419E25C0020002A05D018198278054B51
:103A8000A1188C00E05810BD0348FFF7B1FCEDE72A
:103A90003838002068380020B700030010B5041C37
:103AA0000F2802D90348FFF7A3FC6000024B04195A
:103AB000E05C10BDC800030038380020014B1868D6
:103AC0007047C0461C380020F8B54F464646C0B483
:103AD00080460F2800D99BE041464B00504F994645
:103AE0004A464244BB5C002B6ED0BB189E789D7842
:103AF000911901359D704B4C9A7888000459022A1F
:103B000001D900229A704B464344FD5C013DFD54AF
:103B1000002C59D0444DAC4200D175E0434E326880
:103B2000052A6CD8424D002A52D0286884422CD0F5
:103B3000511E03200023014013D00123934247D29A
:103B40006868A04221D001290BD0022903D0A968BE
:103B50000223A14219D00133DBB299006858A04278
:103B600013D00133DBB2934232D298002958A142DC
:103B70000BD00133DBB299006858A04205D0013365
:103B8000DBB299006858A042E5D12A48FFF730FC23
:103B90002948FFF72DFC32689300E85822498842F3
:103BA00004D02648FFF724FC326893000132EC5021
:103BB000326046460F2E93D92148FFF719FC4A463A
:103BC0004244BB5C002B90D10CBC90469946F8BD9A
:103BD0001C4B9C42E0D0191C22318C42DCD0181CBA
:103BE00044308442D8D0191C66318C42D4D0181C81
:103BF00088308442D0D0AA339C42CDD0C8E7124846
:103C0000FFF7F6FB32688DE71048FFF7F1FB85E719
:103C10000F484446FFF7ECFB6200014F9146C8E7AE
:103C20003838002068380020ADDEADDE1C380020BA
:103C300020380020F60003008600030088000300FF
:103C4000A60003002839002085000300DB000300E4
:103C5000D700030008B5164880220123D105154A74
:103C60004360CB67C36043648358002B02D0124883
:103C7000FFF7BEFB0E4AC22101208B004042A0216B
:103C8000D05000234800A2211350C90004205050F6
:103C90000A4A0B4901201360087013715371802088
:103CA000084BC022C00051005850186008BDC046E3
:103CB00000A000404405000035000400303600201C
:103CC000F439002000E100E00349044B0120002208
:103CD00008601A707047C04600A00040F439002008
:103CE00030B509498024094A0123E500C020084C69
:103CF0004B604000CB600021116011712550517163
:103D0000044A137030BDC04600A000403036002089
:103D100000E100E0F4390020014B18787047C046FC
:103D2000F4390020014B18797047C0463036002026
:103D3000F8B5C224051CA0003A4C80230F1C161CA9
:103D40005902394A63791150002B4FD1002D65D0AB
:103D50002168002902D03548FFF74AFB2560012E73
:103D600052D0002E2BD0022E48D03148FFF740FB16
:103D7000002500202C4B0121A0226171C6195200A0
:103D80000024A8209C50B7B2C4001F51294E1C59D2
:103D900059649E599F58002F2CD1A5421AD8AE4283
:103DA000AD416D42002D35D1A6426D41002D31D17E
:103DB0008022C1241C485702A6008751F8BD1A482A
:103DC00001221C4D42644559A02302645A008650CA
:103DD000A8B2CFE70023191CAE425941A6425B416D
:103DE0009942E5D01448FFF703FBE1E71348FFF7DA
:103DF000FFFAABE71248FFF7FBFACEE7A9200A4E1D
:103E0000C1007558A8B2B5E7A825074AEB00D558F8
:103E1000A8B2AFE70B48FFF7EBFAC9E70A48FFF78C
:103E2000E7FA95E73036002000A000407600040055
:103E30008900040044050000C90004007300040068
:103E40009B000400B00004007500040000487047A7
:103E500048A000400048704740A1004038B580228B
:103E6000A02415485502C2216200144C8B00C55095
:103E7000236800218150002B1AD000220E4B627162
:103E800021680F482260A82501225A64ED001858C5
:103E90005B59C02508332D029D4205D3002298426C
:103EA00052412271884738BD064D8542F6D3F8E766
:103EB0000548FFF79DFAE0E700A0004030360020FB
:103EC00044050000FF3F0000EC00040008B5034B70
:103ED00082001B68D150FBF795FD08BD242000200F
:103EE00030B50F4DAB68002B10D00E4C0B4B0A4A6F
:103EF0002068616812184B41226063602068616825
:103F0000CBB2021C226063600023AB6000236B64B1
:103F100030BDC046C046C0460000000100000000A1
:103F2000FC100140383600200B4B0C4A18685968C9
:103F30000B4B10B5D4580023221C80185941054B57
:103F4000034A00F01FFA4B04C00B1843C90B10BD05
:103F5000E803000000000000383600200010014097
:103F600004050000C046C0460B4B0C4A186859684F
:103F70000B4B10B5D4580023221C80185941054B17
:103F8000034A00F0FFF94B04C00B1843C90B10BDE6
:103F900040420F00000000003836002000100140B1
:103FA00004050000C046C04608B5FFF7BDFF08BDC8
:103FB00008B5FFF7D9FF08BD00B5021E062A27D8AD
:103FC0000C2925D8C132A023FF32081CDB05920042
:103FD00000F07EF907140B07090D0F121416181ABA
:103FE0001C00002113E0042111E00C210FE001214D
:103FF0000DE00221FF310AE0064908E0064906E02B
:10400000064904E0064902E0064900E006499950E5
:1040100000BDC046010200000103000001040000D1
:1040200001050000010600000107000070B50B4DFE
:10403000041C2B5C0E1C002B03D000F0F9F80023AD
:104040002B550122A023A240DB05141C002E02D018
:10405000A121C90000E002495C5070BDE435002098
:104060000C05000008B5FBF7FBFAFBF78BF8FBF734
:10407000DDF9FCE738B58025ED002A1C0021041C81
:1040800000F098FC024A00236351201CA35038BD65
:10409000040400008023DB00C25810B5054C013237
:1040A00004599205920DA24202D0C4580155C25043
:1040B00010BDC0460404000001207047036980223F
:1040C000D2009858024A9B58C01A8005800D70474C
:1040D0000404000003698022D2009858044A9958C9
:1040E000884202D09A58985C01E001204042704713
:1040F0000404000003698022D2009858074A9958A6
:10410000884207D09958585C995801318905890D22
:10411000995001E0012040427047C046040400006D
:10412000037E002BFCD1704700234360FA239B00E1
:104130008360034B01610833036042617047C046EE
:10414000F04E020010B500240476081C111C1A1C45
:10415000FBF7D8FA10BD000043698022D20010B5E9
:104160009C58094A99588C4202D1002303760AE0F0
:10417000012101769958585C995801318905890DBA
:104180009950FBF771FA10BD0404000038B50F4BCD
:10419000041C1B78002B17D040698023DB00C35818
:1041A0000B4A0C4D013382582B4003D50A4D013B7D
:1041B0002B4301339342F0D0FFF76CFF237E002B9B
:1041C00002D1201CFFF7C8FF012038BDB42D00200C
:1041D00004040000FF03008000FCFFFF38B5114B12
:1041E000041C1A6A1D1C002A04D0FBF753FA201C79
:1041F000FFF7B2FFEB68002B12D0FBF745FAA323C1
:10420000094ADB00D558FBF74BFA002808D1206992
:10421000E9B2FFF73FFF054B002B01D000E000BFE4
:1042200038BDC046FC2000400020004000000000D7
:1042300070B5184E4500041CA85DFF2803D0FBF79D
:10424000C9FBFF23AB5575196878FF2803D0FBF72E
:10425000C1FBFF236B70104B1A5DFF2A07D045325C
:10426000FF320E480E4992005050FF221A5500238B
:104270000C4A9A181178A14201D1FF2111700A4A03
:104280009A181178A14201D1FF2111700133032B3B
:10429000EED170BD0C2000201D200020001F030067
:1042A000006000401A20002009200020F8B5061CFC
:1042B0000C1C8F180025BC4207D0336821781B687E
:1042C000301C984701342D18F5E7281CF8BD000074
:1042D00002B4714649084900095C49008E4402BC99
:1042E0007047C046002934D00123002210B4884210
:1042F0002CD301242407A14204D2814202D2090115
:104300001B01F8E7E400A14204D2814202D2490035
:104310005B00F8E7884201D3401A1A434C08A042D8
:1043200002D3001B5C0822438C08A04202D3001B6E
:104330009C082243CC08A04202D3001BDC08224385
:10434000002803D01B0901D00909E3E7101C10BCA9
:104350007047002801D00020C04307B4024802A1E2
:104360004018029003BDC046190000000029F0D09B
:1043700003B5FFF7B9FF0EBC4243891A1847C04680
:104380007047C0469C460304F0B51B0C17043F0C55
:10439000150C1E1C041C000C7E436B434743454315
:1043A000FB18300C1818874202D980235B02ED18E5
:1043B000030CED1863465C434A433604360CA118DF
:1043C000000480194919F0BD70B50D4E0D4D002443
:1043D000AD1BAD1005D0A300F35801349847A5429A
:1043E000F9D100F09DFD084E084D0024AD1BAD1025
:1043F00005D0A300F35801349847A542F9D170BD08
:104400002C4F02002C4F02002C4F02003C4F0200A8
:1044100008B5034B011C186800F004F808BDC0463D
:1044200030250020F0B5564644465F464D46F0B470
:104430000C1C0B3483B0061C162C2BD907239C4371
:104440002BD4A14229D8301C00F002FBF823FF3303
:104450009C4226D8E208CA4DD300EB18DF689F4281
:1044600000D1BBE178680323FA68B96898433B1828
:10447000CA609160596801220A43301C5A6000F0FA
:10448000E9FA381C083003B03CBC90469946A24675
:10449000AB46F0BD1024A142D5D90C2333600020D7
:1044A000F1E7630A00D18EE0042B00D93DE1A309B6
:1044B00038339C465900B24D89006918CF68B9421B
:1044C00015D07A6803239A43101B0F2800DD8DE076
:1044D00000287CDA032007E07A688243131B0F2B45
:1044E00000DD83E0002B72DAFF68B942F4D10122CB
:1044F00094442B1C2F6908339F4200D163E17868F4
:1045000003229043021C011B0F2900DD4AE16B616D
:104510002B6100295FDA9B4B984200D90FE1C30859
:104520009A100121DB00EB18914068680A1C996819
:104530000243FB60B9606A609F60CF6061468B1088
:1045400001219940914255D811420DD10323604673
:104550009843031C043349009C46114204D10423B0
:1045600049009C441142FAD0032080466246D300A1
:104570005B199A46181CE146C768B84207D124E186
:10458000002B00DB33E1FF68B84200D11DE17A68FF
:1045900043469A43131B0F2BF2DD01213A190C43BA
:1045A0007C60F868BC680835E06019438460EA60A4
:1045B000AA60301CD56095605160D35000F04AFA73
:1045C000381C08305FE73F227E21944673E7FB6882
:1045D000B968CB609960BA18516801230B43301C4D
:1045E000536000F037FA381C08304CE70120404295
:1045F00084447CE7AF680323786898438146A042EF
:1046000003D3031B0F2B00DD81E05F4A5F4B49465C
:104610001B68106879180191E3189346013000D1A6
:1046200047E15B495B181B0B1B030093301C00998F
:1046300000F012FA021C804601325DD0019B8342D9
:1046400000D9EBE053480099026882468B18019923
:104650000360414500D135E15A461268013200D16C
:1046600043E1019841460A1A9B1851460B60072303
:104670004246134000D104E1D21A08329046464A1D
:10468000D31A0098021C42441205120D9A1A111CEA
:10469000301C934600F0E0F9411C00D121E1424674
:1046A000801A584401231843524611680B1C5B447E
:1046B0004146A96013604860AF4213D04A460F2AB2
:1046C00000D8E9E04A46786807210C3A8A4301217C
:1046D0000140114379600520B918486088600F2AAD
:1046E00000D906E12D4A1068834200D913602C4A94
:1046F00011688B4200D91360AF6803237A689A432C
:10470000131B944200D9AEE00F2B00DCABE001227A
:10471000211C11433C1913437960301CAC60636069
:1047200000F098F9381C0830ADE6142B6ED9542BE4
:1047300000D99DE0230B6E339C465900BBE6430A2B
:10474000042B67D9142B00D9B6E0191C5B31480043
:104750008000401983688146834200D194E00321A0
:1047600088465968404681438A4202D29B689945EF
:10477000F7D1D9686A68F960BB608F60DF60DDE6F9
:1047800034250020FF010000402900204836002089
:104790000F1000004C3600200810000044360020A6
:1047A0004036002001203A19044308437C606A61C6
:1047B0002A615060D3609360301C515000F04AF978
:1047C000381C08305FE66A68B8E601229144434627
:1047D0004A460830134200D0CEE62CE03B1C7F69ED
:1047E000023208339446BB4200D182E63AE6BA1858
:1047F0005068012303435360FB68BA68301CD360E0
:104800009A6000F027F9381C08303CE65B339C4680
:10481000590050E681093831480099E7AF4200D08D
:104820006AE70FE75346186801225242083B944456
:104830008246984277D1434660460342F2D16B6884
:104840008B436B604900994200D9D3E6002900D11F
:10485000D0E6CC46194200D088E6042249009444B0
:104860001942FAD082E6301C00F0F4F800200AE683
:10487000AA225200934214D8E30B77339C46590086
:1048800019E680235B01FCE68910686801228A40F2
:1048900002436A60191C6EE701234B604746002201
:1048A0002EE7224A934218D8A30C7C339C46590029
:1048B00001E610330093B9E6542B22D8010B6E3178
:1048C000480045E70A0500D0C6E60099AA68081C1A
:1048D000484401210143516004E77E23FC219C46AA
:1048E000E9E5002301209B46DEE643465846036087
:1048F000BDE6391C0831301C00F03CF951460B680C
:10490000F0E6AA2149008B4203D8C10B7731480059
:104910001EE706498B4203D8810C7C31480017E71B
:10492000FC207E2114E76B688CE7C046540500002C
:10493000F0B50F2A35D9031C0B439C0735D1161C43
:10494000103E36093501451910350C1C031C27682B
:104950001F6067685F60A7689F60E7681034DF606A
:104960001033AB42F3D1731C1B01C518C9180F23B8
:104970001340032B1BD91C1FA4080134A4000023DF
:10498000CE58EE500433A342FAD1ED18C9180323D0
:104990001A4005D00023CC5CEC5401339342FAD189
:1049A000F0BD051C002AF5D1FAE7051CF2E71A1C38
:1049B000F8E7C046F0B5830746D0541E002A42D01F
:1049C000CEB2031C032503E0621E002C3BD0141C56
:1049D00001335A1E16702B42F6D1032C2BD9FF251A
:1049E0000D402A0215432A0415430F2C15D9271C04
:1049F000103F3F091E1C3A011036B6181A1C1560EC
:104A000055609560D5601032B242F8D101373F0150
:104A10000F22DB191440032C0DD9271FBF08BA0041
:104A20001E1DB6181A1C20C2B242FCD10137BF00AD
:104A30000322DB191440002C05D01C19C9B21970CF
:104A40000133A342FBD1F0BD141C031CC5E7C046D3
:104A50007047C0467047C04638B5074C0023051C58
:104A6000081C2360FAF75CFB431C00D038BD2368A8
:104A7000002BFBD02B60F9E7F839002008B5034B79
:104A8000002B02D0024800F005F808BD000000002D
:104A9000A54A020008B5011C00220020002300F0F6
:104AA00031F908BD38B5094B094DED1AAD1009D0E3
:104AB000013DAC00E41800E0013D23689847043C48
:104AC000002DF9D100F03AFA38BDC046484F020037
